:020000040800F2
:10000000488C0120D10500082906000829060008AF
:10001000290600082906000829060008000000003B
:100020000000000000000000000000002906000899
:10003000290600080000000029060008290600081B
:1000400029060008290600082906000829060008D4
:1000500029060008290600082906000829060008C4
:1000600029060008290600082906000829060008B4
:1000700029060008290600082906000829060008A4
:100080002906000845050008290600082906000879
:100090002906000829060008290600082906000884
:1000A0002906000829060008290600082906000874
:1000B0002906000829060008290600082906000864
:1000C0002906000829060008290600082906000854
:1000D0002906000829060008290600082906000844
:1000E0002906000829060008290600082906000834
:1000F0002906000829060008290600082906000824
:100100002906000829060008290600082906000813
:100110002906000829060008290600082906000803
:1001200029060008390500082906000829060008E4
:1001300029060008290600082906000829060008E3
:1001400029060008290600082906000829060008D3
:1001500029060008290600082906000829060008C3
:1001600029060008290600082906000829060008B3
:1001700029060008290600082906000829060008A3
:10018000290600082906000880B500AF104811496B
:1001900001F09EFA0346002B08D00F484FF440515F
:1001A00001F07EF80A480B4901F0CEFA0B480C49E1
:1001B00001F08EFA0346002B08D007484FF4404167
:1001C00001F06EF80548064901F0BEFA80BD00BF97
:1001D0002864024000080010000C0240A0600240A9
:1001E0000000202080B584B000AFF860B9607A606C
:1001F0003B60B86800F01AF83B68002B07D07B68BA
:10020000002B04D0F86879683A6800F08FF8BB6971
:10021000002B07D0FB69002B04D0F868B969FA6994
:1002200000F0FEF81037BD4680BD00BF80B586B037
:1002300000AF78600120012100F0B0FD07F10C0350
:10024000184601F0B3FB134B1B687A68C82101FB09
:1002500002F2B3FBF2F39BB2013B9BB2BB8164237E
:100260003B610023BB821023FB8107F10C034FF09D
:100270008040194601F030FB4FF08040202101F012
:10028000CFFB4FF08040012101F0AAFB1837BD469B
:1002900080BD00BF0000002080B58AB000AF4FF4E1
:1002A0008060012100F098FD00233B6000237B600B
:1002B0000023BB604FF4A063FB603B46184600F090
:1002C0001BFE00233B6100233B7500237B754FF031
:1002D000C063FB614FF08053BB6100233B6201238D
:1002E00087F8243007F110030848194600F0B0FDE4
:1002F00006480C210122022300F042FE034801219E
:1003000000F024FF2837BD4680BD00BF0022014019
:1003100080B500AF0448012100F0FCFE0248012135
:1003200000F012FE80BD00BF0022014080B596B0F3
:1003300000AFF860B9607A603448012100F010FD28
:100340004FF08063FB61324B3B620023BB62FB6872
:10035000FB6200233B634FF480637B634FF40063D5
:10036000BB634FF40053FB634FF480733B644FF463
:1003700000337B640023BB640123FB6400233B65E3
:1003800000237B6507F11C032248194601F012F98E
:100390002048012101F080F91E481021012201F0BE
:1003A00001FA1C4ABB68D3601A4A7B68136119487A
:1003B000012101F055F939233B7400237B7401239B
:1003C000BB740123FB7407F11003184601F024FAF3
:1003D00004237B6103233B760023FB7607F11403A0
:1003E0000D48194600F0CEFE4FF470437B610123A7
:1003F0003B760223FB7607F114030848194600F008
:10040000C1FEFFF749FF5837BD4680BD0C004000D4
:100410004C2201402864024000080240000C0240C7
:1004200080B586B000AFF860B9607A600F480121EE
:1004300000F096FC4FF00050012100F0AFFC2023AB
:100440003B6103233B750023FB7507F1100308484C
:10045000194600F097FE00F07BF8F868B9687A68F2
:1004600000F008F81837BD4680BD00BF0800200026
:10047000000C024080B598B000AFF860B9607A60B7
:1004800024233B6500237B650023BB650023FB65BC
:1004900007F150031020194600F068F811233B744F
:1004A00000237B740123BB740123FB7407F1100349
:1004B000184601F0B1F91E4800F0AAFF4FF0606342
:1004C0007B611C4BBB61FB687B624FF400633B6349
:1004D0004FF400537B6340233B620023BB624FF425
:1004E0008063FB624FF48073BB634FF40033FB63A4
:1004F00000233B6401237B640023BB640023FB6473
:1005000007F114030A48194601F054F8084801217C
:1005100001F0C2F806481021012201F043F9044A13
:10052000BB68D360024A7B6813616037BD4680BDFB
:10053000A06002401474004080B500AFFFF724FEB5
:1005400080BD00BF80B500AFFFF71EFE80BD00BFBD
:1005500080B500AF4FF00050012100F05BFC4FF080
:100560000050002100F056FC80BD00BF80B485B073
:1005700000AF786039600023FB600023BB60134B41
:100580001B68FB607B6840F6FE7202FA03F3DB43F4
:10059000FA681340FB603B681A683B685B681A4363
:1005A0003B689B681A433B68DB681343BB607B680E
:1005B000BA6802FA03F3FA681343FB60034AFB6864
:1005C00013601437BD465DF8047B7047007400402B
:1005D00080B582B000AF0F4B7B600F4B3B6007E0F4
:1005E0003B681A1D3A607A68111D796012681A60BA
:1005F0003B680A4A9342F3D309480A494FF0000284
:100600008842B8BF40F8042BFADB00F011F8083735
:10061000BD4680BD64430008000000204404002063
:10062000440400204484012080B400AFFEE700BFF2
:1006300080B582B002AF00F045FE0B4800214FF4B8
:10064000004203F017FC094B0093074B01934FF452
:1006500000504FF47A51044A044BFFF7C3FDFFF7F3
:1006600057FE00F005F8FEE7440400204444002053
:100670002DE9F04F95B002AF6B467B600023A7F8E1
:1006800046304FF48043A7F84430B7F8446033B2A3
:10069000013B3B6433B21A464FF000035901F96144
:1006A000F96941EAD261F9615301BB6133B21A467B
:1006B0004FF0000359017961796941EAD2617961AA
:1006C00053013B6133B29B0003330733DB08DB008C
:1006D000ADEB030D02AB03339B089B00FB63B7F844
:1006E00044100BB2013BBB630BB21A464FF0000340
:1006F0005801F860F86840EAD260F8605301BB60C6
:100700000BB21A464FF000034FEA431B4BEAD26B81
:100710004FEA421A0BB29B0003330733DB08DB00BE
:10072000ADEB030D02AB03339B089B007B63B7F873
:1007300044100BB2013B3B630BB21A464FF000036F
:100740004FEA431949EAD2694FEA42180BB21A46F6
:100750004FF000035D0145EAD26554010BB29B00E6
:1007600003330733DB08DB00ADEB030D02AB0333D0
:100770009B089B00FB6214E0B7F94640B7F946308E
:10078000B14A32F81330184603F026F90246FB6AE4
:1007900043F82420B7F846309BB201339BB2A7F848
:1007A0004630B7F94620B7F944309A42E4DBFA6A9A
:1007B0004FF0FF330093104600210822032300F07E
:1007C0004FF90023A7F846304FF000024FF0000326
:1007D000C7E9082316E1B7F946304FF4FA5202FB95
:1007E00003F2B7F9443092FBF3F3184602F0EEFC43
:1007F00002460B46104619464FF00002934B02F09A
:1008000075FE02460B46104619464FF00002904B0B
:1008100002F090FB02460B46C7E90823B7F94640B1
:10082000B7F94630184602F0D1FC02460B46104696
:1008300019467BA3D3E9002302F02EFD02460B46A6
:1008400090469946B7F94430013B184602F0BEFC89
:1008500002460B464046494602F048FE02460B4619
:100860001046194602F0B2FF0346184601F0F4F8AC
:100870000346184602F0BCFC02460B4610461946D9
:1008800069A3D3E9002302F007FD02460B4668A1E5
:10089000D1E9000102F04CFB02460B461046194616
:1008A00002F094FF0246FB6A43F82420B7F9464061
:1008B000D7E9080101F082F902460B4610461946B5
:1008C0005DA3D3E9002302F0E7FC02460B46104685
:1008D000194602F07BFF0246FB6B43F82420B7F970
:1008E0004640B7F94620FB6A53F82210B7F9462074
:1008F000FB6A53F822300846194603F0C5F8034650
:10090000184602F075FC02460B461046194603F0E5
:10091000A7FA0346184603F063F80146B7F94620E4
:10092000FB6B53F822300846194603F0ADF8034636
:10093000184602F05DFC02460B461046194601F0CF
:10094000C1F802460B461046194602F03FFF024628
:100950007B6B43F82420B7F94640B7F946207B6B00
:1009600053F82250B7F94630184602F02FFC0246E1
:100970000B461046194632A3D3E9002302F08CFC43
:1009800002460B4690469946B7F94630184602F0A3
:100990001DFC02460B46104619464FF000022D4B37
:1009A00002F0C8FA02460B464046494602F074FC83
:1009B00002460B4690469946B7F94430184602F075
:1009C00005FC02460B464046494602F08FFD0246B2
:1009D0000B461046194602F0F9FE0346184601F090
:1009E0003BF803462846194603F04EF803461A46DC
:1009F000194B43F82420B7F846309BB201339BB221
:100A0000A7F84630B7F94620B7F944309A42FFF6C6
:100A1000E2AED7F804D04C37BD46BDE8F08F00BF3A
:100A20001F85EB51B81E1940713D0AD7A370DD3FF9
:100A300048E17A14AE47E13F00000000009C91407D
:100A40001F85EB51B81E09404404002000E085409A
:100A50000000F03F0000E03F44840020AFF300803E
:100A60002DE9F04F91B000AF78613961FA60BB6059
:100A7000FB68B3F5804F02DCFB68002B00DC66E10D
:100A8000FB685A1EFB681340002B02D1FB68012B48
:100A900000DC5CE1BB68012B02DDBB680E2B00DDD6
:100AA00055E1BB6EB3F1FF3F03D0BB6E012B00D00D
:100AB0004DE1FB685B107B60D7F80C904FF00108AC
:100AC000CDE0BB68C8EB0303A34A52F823303B6375
:100AD000BB68C8EB0303A14A52F823307B63BB6EAB
:100AE000012B03D17B6B83F000437B634FEA6906E4
:100AF0004FF07E53FB634FF00003BB630025A7E07C
:100B00002C467CE004EB060A23469B007A691344DA
:100B1000196853469B007A6913441B6808461946B6
:100B200002F0AAFE0346FB6223469B003A69134487
:100B3000196853469B003A6913441B6808461946D6
:100B400002F09AFE0346BB6223469B007A69134477
:100B5000196853469B007A6913441B680846194676
:100B600002F088FE03467B6223469B003A691344E9
:100B7000196853469B003A6913441B680846194696
:100B800002F078FE03463B6253469B007A6902EB13
:100B9000030B786AF96B02F077FF03463B60386A13
:100BA000B96B02F071FF03463868194602F062FE25
:100BB0000346CBF8003053469B003A6902EB030A28
:100BC000386AF96B02F060FF03469B46786AB96B9E
:100BD00002F05AFF03465846194602F04DFE0346FE
:100BE000CAF8003023469B007A691344FA6A1A60F7
:100BF00023469B003A691344BA6A1A604C44FB6866
:100C00009C42FFF67FAFFB6BFB61F86B396B02F028
:100C10003BFF03461C46B86B796B02F035FF034679
:100C20002046194602F026FE0346FB63B86B396B7B
:100C300002F02AFF03461C46F869796B02F024FF94
:100C400003462046194602F017FE0346BB630135F2
:100C5000B542FFF655AF4FEA690908F10108BB68D4
:100C600098457FF72EAF0124254638E0AC422EDAB6
:100C700004F1FF3A6E1E33469B007A6913441B68E9
:100C8000FB6233469B003A6913441B68BB623346E0
:100C90009B007A6913445246920079690A441268AB
:100CA0001A6033469B003A691344524692003969F0
:100CB0000A4412681A6053469B007A691344FA6A20
:100CC0001A6053469B003A691344BA6A1A607E68F8
:100CD00001E0AD1B7610AE42FBDB35440134FB680E
:100CE0009C42C3DBBB6EB3F1FF3F00D12FE0F8683D
:100CF00002F076FE03464FF07E50194602F078FF70
:100D000003463B6300241EE023469B007A69D51806
:100D100023469B007A6913441B681846396B02F01E
:100D2000B3FE03462B6023469B003A69D518234641
:100D30009B003A6913441B681846396B02F0A4FE05
:100D400003462B600134FB689C42DDDB00BF443767
:100D5000BD46BDE8F08F00BF103F0008483F0008C7
:100D600080B483B000AF78600B46FB70FB78002B3B
:100D700006D00949084B1A6B7B6813430B6306E0E6
:100D80000549054B1A6B7B68DB4313400B630C373B
:100D9000BD465DF8047B70470038024080B483B0E4
:100DA00000AF78600B46FB70FB78002B06D009493A
:100DB000084B1A6C7B6813430B6406E00549054B2E
:100DC0001A6C7B68DB4313400B640C37BD465DF83F
:100DD000047B70470038024080B483B000AF786075
:100DE0000B46FB70FB78002B06D00949084B5A6C68
:100DF0007B6813434B6406E00549054B5A6C7B68DE
:100E0000DB4313404B640C37BD465DF8047B7047F1
:100E10000038024080B483B000AF78600B46FB70AE
:100E2000FB78002B06D00949084B1A6A7B681343EC
:100E30000B6206E00549054B1A6A7B68DB431340E9
:100E40000B620C37BD465DF8047B704700380240EA
:100E500080B485B000AF786039600023FB60002368
:100E6000FB727B685B68FB60FB6823F0407323F4D4
:100E70008073FB603B681B791A023B681B68134355
:100E8000FA681343FB607B68FA685A607B689B686A
:100E9000FB60FA68174B1340FB603B681A693B68BC
:100EA000DB681A433B689B681A433B685B795B00CD
:100EB0001343FA681343FB607B68FA689A607B68A7
:100EC000DB6AFB60FB6823F47003FB603B681B7DFF
:100ED000013BDAB2FB7A1343FB72FB7A1B05FA681B
:100EE0001343FB607B68FA68DA621437BD465DF82D
:100EF000047B7047FDF7FFC080B485B000AF786019
:100F00000023FB600E4B5B68FB60FA680D4B1340DF
:100F1000FB607B681A687B685B681A437B689B6828
:100F20001A437B68DB681343FA681343FB60044A87
:100F3000FB6853601437BD465DF8047B704700BF03
:100F400000230140E030FCFF80B483B000AF786044
:100F50000B46FB70FB78002B06D07B689B6843F048
:100F600001027B689A6005E07B689B6823F00102C0
:100F70007B689A600C37BD465DF8047B704700BF04
:100F800080B485B000AF7860084611461A46034623
:100F9000FB700B46BB7013467B700023FB60002385
:100FA000BB60FB78092B23D97B68DB68FB60FB788F
:100FB000A3F10A0213465B001344072202FA03F36B
:100FC000BB60BB68DB43FA681340FB607978FB7851
:100FD000A3F10A0213465B00134401FA03F3BB605A
:100FE000FA68BB681343FB607B68FA68DA601EE04E
:100FF0007B681B69FB60FA7813465B001344072289
:1010000002FA03F3BB60BB68DB43FA681340FB6082
:101010007978FA7813465B00134401FA03F3BB6056
:10102000FA68BB681343FB607B68FA681A61BB7897
:10103000062B21D87B685B6BFB60BB785A1E13467E
:101040009B0013441F2202FA03F3BB60BB68DB431F
:10105000FA681340FB60F978BB785A1E13469B0070
:10106000134401FA03F3BB60FA68BB681343FB60E7
:101070007B68FA685A6347E0BB780C2B21D87B6801
:101080001B6BFB60BB78DA1F13469B0013441F22C7
:1010900002FA03F3BB60BB68DB43FA681340FB60F2
:1010A000F978BB78DA1F13469B00134401FA03F367
:1010B000BB60FA68BB681343FB607B68FA681A631D
:1010C00022E07B68DB6AFB60BB78A3F10D0213466C
:1010D0009B0013441F2202FA03F3BB60BB68DB438F
:1010E000FA681340FB60F978BB78A3F10D02134650
:1010F0009B00134401FA03F3BB60FA68BB68134317
:10110000FB607B68FA68DA621437BD465DF8047BE1
:10111000704700BF80B483B000AF78600B46FB70AF
:10112000FB78002B06D07B689B6843F480727B6859
:101130009A6005E07B689B6823F480727B689A6004
:101140000C37BD465DF8047B704700BF80B483B0A8
:1011500000AF78600B46FB70FB78002B06D07B68F5
:101160009B6843F400727B689A6005E07B689B682B
:1011700023F400727B689A600C37BD465DF8047BEF
:10118000704700BF80B487B000AF7860396000233B
:101190007B6100233B610023FB6000237B6176E0E1
:1011A0007B69012202FA03F33B613B681A683B69E1
:1011B0001340FB60FA683B699A4265D17B681A6804
:1011C0007B695B00194603238B40DB431A407B6835
:1011D0001A607B681A683B681B7919467B695B005B
:1011E00001FA03F31A437B681A603B681B79012BF1
:1011F00003D03B681B79022B2ED17B689A687B69F0
:101200005B00194603238B40DB431A407B689A60DE
:101210007B689A683B685B7919467B695B0001FAD9
:1012200003F31A437B689A607B685A687B699BB2B8
:10123000194601238B40DB431A407B685A607B6868
:101240005B683A68927911467A6992B201FA02F2C1
:1012500092B21A437B685A607B68DA687B699BB2FA
:101260005B00032101FA03F3DB431A407B68DA6079
:101270007B68DA683B68DB7919467B695B0001FAB9
:1012800003F31A437B68DA607B6901337B617B6916
:101290000F2B85D91C37BD465DF8047B704700BF16
:1012A00080B483B000AF78600B467B807B685A695E
:1012B0007B885A407B685A610C37BD465DF8047BD9
:1012C000704700BF80B500AF114A114B1B6843F057
:1012D000010313600E4B00229A600D4A0C4B1B68F1
:1012E00023F0847323F480331360094B094A5A6056
:1012F000074A074B1B6823F480231360044B00222A
:10130000DA6000F00BF8044B4FF000629A6080BD89
:10131000003802401030002400ED00E080B483B0BB
:1013200000AF00237B6000233B60354A344B1B68D1
:1013300043F480331360324B1B6803F400333B608B
:101340007B6801337B603B68002B03D17B68B3F57E
:10135000A06FF0D12A4B1B6803F40033002B02D09E
:1013600001233B6001E000233B603B68012B42D13D
:10137000234A234B1B6C43F080531364214A214BB7
:101380001B6843F4804313601D4A1D4B9B689360A8
:101390001B4A1B4B9B6843F400439360184A184B4D
:1013A0009B6843F4A0539360154B174A5A60144A44
:1013B000134B1B6843F08073136000BF104B1B6816
:1013C00003F00073002BF9D0104B40F205621A6055
:1013D0000B4A0B4B9B6823F003039360084A084BAE
:1013E0009B6843F00203936000BF054B9B6803F0CA
:1013F0000C03082BF9D10C37BD465DF8047B704710
:10140000003802400070004019544007003C024080
:1014100080B483B000AF78607B681B6823F0010262
:101420007B681A607B6800221A607B6800225A6021
:101430007B6800229A607B680022DA607B68002269
:101440001A617B6821225A617B68454A934203D125
:10145000444B3D229A607EE07B68434A934204D12C
:10146000404B4FF474629A6075E07B683F4A934248
:1014700004D13C4B4FF474129A606CE07B683C4A98
:10148000934204D1374B4FF074629A6063E07B68FB
:10149000384A934203D1334B374ADA605BE07B68CA
:1014A000364A934203D12F4B354ADA6053E07B68CA
:1014B000344A934203D12B4B334ADA604BE07B68CA
:1014C000324A934204D1274B4FF03D52DA6042E05A
:1014D0007B682F4A934203D12E4B3D229A603AE01B
:1014E0007B682D4A934204D12A4B4FF474629A6070
:1014F00031E07B68294A934204D1264B4FF47412A1
:101500009A6028E07B68264A934204D1214B4FF031
:1015100074629A601FE07B68224A934203D11D4B9C
:10152000154ADA6017E07B681F4A934203D1194BD2
:10153000134ADA600FE07B681C4A934203D1154BD3
:10154000114ADA6007E07B68194A934203D1114BD4
:101550004FF03D52DA600C37BD465DF8047B7047B2
:10156000106002400060024028600240406002407B
:1015700058600240706002403D00002088600240D8
:10158000400F0020A060024000003D20B8600240F3
:10159000106402400064024028640240406402403B
:1015A000586402407064024088640240A0640240B3
:1015B000B864024080B485B000AF78603960002321
:1015C000FB607B681B68FB60FA68244B1340FB6080
:1015D0003B681A683B68DB681A433B685B691A43DF
:1015E0003B689B691A433B68DB691A433B681B6A8B
:1015F0001A433B685B6A1A433B689B6A1A433B6821
:101600005B6B1A433B689B6B1343FA681343FB60A5
:101610007B68FA681A607B685B69FB60FB6823F093
:101620000703FB603B68DA6A3B681B6B1343FA688D
:101630001343FB607B68FA685A613B681A697B68F0
:101640005A603B685A687B689A603B689A687B6816
:10165000DA601437BD465DF8047B70473F801CF0AC
:1016600080B483B000AF78600B46FB70FB78002B32
:1016700006D07B681B6843F001027B681A6005E0B6
:101680007B681B6823F001027B681A600C37BD463B
:101690005DF8047B704700BF80B483B000AF786012
:1016A0000B46FB70FB78002B06D07B681B6843F46D
:1016B00080227B681A6005E07B681B6823F4802227
:1016C0007B681A600C37BD465DF8047B704700BF2D
:1016D00080B487B000AF786039600023FB750023C9
:1016E000FB607B68154A934202D8154B3B6101E0D1
:1016F000144B3B613B6803F00053002B03D03B6964
:101700005B68FB6002E03B691B68FB60FB6823F0E1
:10171000F02323F08213FB60FA683B681340002B30
:1017200002D00123FB7501E00023FB75FB7D184609
:101730001C37BD465DF8047B704700BF0F64024054
:10174000006002400064024080B485B000AF786061
:1017500039607B68104A934202D8104BFB6001E06D
:101760000F4BFB603B6803F00053002B07D03B6836
:1017700023F0F02323F08213FA68D36006E03B687D
:1017800023F0F02323F08213FA6893601437BD46E8
:101790005DF8047B704700BF0F64024000600240A8
:1017A0000064024080B485B000AFF860B9601346B1
:1017B000FB71BB6803F08003002B0FD0FB79002B7B
:1017C00006D0FB685B6943F08002FB685A6105E064
:1017D000FB685B6923F08002FB685A61BB68802B61
:1017E00014D0FB79002B08D0FB681A68BB6803F0A3
:1017F0001E031A43FB681A6008E0FB681A68BB689E
:1018000003F01E03DB431A40FB681A601437BD4621
:101810005DF8047B704700BF80B485B000AF78608E
:101820000023FB730023BB730F237B737B68DB7880
:10183000002B38D0264BDB68DB4303F4E0631B0A44
:10184000FB73FB7BC3F10403BB737A7BFB7B42FA24
:1018500003F37B737B685B781A46BB7B02FA03F366
:10186000FB737B689A787B7B1340DAB2FB7B134374
:10187000FB73FB7B1B01FB73164A7B681B781344CD
:10188000FA7B83F80023134A7B681B785B09DBB281
:1018900018467B681B7803F01F03012101FA03F34C
:1018A00042F820300FE00B497B681B785B09DBB204
:1018B00018467B681B7803F01F0301229A4000F151
:1018C000200341F823201437BD465DF8047B7047A0
:1018D00000ED00E000E100E080B485B000AF78608A
:1018E00039600023FB817B681B88FB817B68284A69
:1018F000934213D07B68274A93420FD07B68B3F1A1
:10190000804F0BD07B68244A934207D07B68234AE0
:10191000934203D07B68224A934208D1FB8923F08B
:101920007003FB813B685A88FB891343FB817B680A
:101930001C4A93420CD07B681B4A934208D0FB8917
:1019400023F44073FB813B681A89FB891343FB81B5
:101950007B68FA891A803B685A687B68DA623B6860
:101960001A887B681A857B68094A934203D07B6892
:10197000084A934204D13B689B7A9AB27B681A86E4
:101980007B6801229A821437BD465DF8047B70475C
:101990000000014000040140000400400008004035
:1019A000000C0040001000400014004080B483B0E0
:1019B00000AF78607B684FF0FF325A607B6800228E
:1019C0001A807B6800221A817B6800225A807B681B
:1019D00000229A720C37BD465DF8047B704700BF49
:1019E00080B483B000AF78600B46FB70FB78002BAF
:1019F00008D07B681B889BB243F001039AB27B68D6
:101A00001A8007E07B681B889BB223F001039AB21F
:101A10007B681A800C37BD465DF8047B704700BFB9
:101A200080B483B000AF78600B467B807B689B8876
:101A30009BB223F070039AB27B689A807B689B8884
:101A40009AB27B8813439AB27B689A800C37BD4662
:101A50005DF8047B704700BF00B5194A20F00043D1
:101A6000934283B0014617DDB3F1FF4F04DB01F071
:101A700001FF03B05DF804FB694600F095FB00F040
:101A80000302012A0098019911D0022A0AD09AB1C2
:101A9000012201F0F7F8ECE7002100F0F7FC03B0B9
:101AA0005DF804FB00F0F2FC00F10040E1E701F01A
:101AB000E9F800F10040DCE700F0E8FCD9E700BFFE
:101AC000D80F493F2DE9F041DFF8EC808AB0064697
:101AD0000F4600F0F1F898F90030013304460D4646
:101AE0000BD03046394601F043F930B13046394623
:101AF0000022002301F060FE20B1204629460AB0F2
:101B0000BDE8F08198F80040274B0890CDE90267C6
:101B1000CDE904670193304639468CB9234D4FF027
:101B2000604400220023CDE9064501F01DFE002897
:101B300031D101230093684601F046F988B90CE0E1
:101B40001B4F002600220023CDE9066701F00CFEA2
:101B500098B90123022C0093EDD102F085F92123DD
:101B60000360144801F032F9CDE90601089BABB9D6
:101B7000DDE906010AB0BDE8F08102239C42009332
:101B800004D0684601F020F90028EFD102F06CF98A
:101B900022230360EAE702230093F2E702F064F9EC
:101BA000089B0360E4E700BF803F0008FFFFEFC72A
:101BB0000000F0FF843F0008140000202DE9F041F0
:101BC000DFF8EC808AB006460F4600F05DFA98F91F
:101BD0000030013304460D460BD03046394601F043
:101BE000C7F830B1304639460022002301F0D0FD5D
:101BF00020B9204629460AB0BDE8F081284B98F864
:101C0000004001930023CDE90267CDE90467089302
:101C1000304639468CB9234D4FF0604400220023F2
:101C2000CDE9064501F0A0FD002831D10123009344
:101C3000684601F0C9F888B90CE01B4F0026002265
:101C40000023CDE9066701F08FFD98B90123022C2E
:101C50000093EDD102F008F921230360134801F04D
:101C6000B5F8CDE90601089BABB9DDE906010AB07C
:101C7000BDE8F08102239C42009304D0684601F045
:101C8000A3F80028EFD102F0EFF822230360EAE77F
:101C900002230093F2E702F0E7F8089B0360E4E711
:101CA000883F0008FFFFEFC70000F0FF843F0008F7
:101CB00014000020000000002DE9F04FB1F5801F56
:101CC00085B006460F460B465ADA024621F000441C
:101CD000224300F0F6800029C0F272810022DE4B20
:101CE00001F0DAFA0B460F46DC498B4206466FF0EC
:101CF00035024ADCC3F3130505F5152404F66474B4
:101D000004F4801E8EF07F5181F440111B15A3F264
:101D1000FF3341EA05079C1830460022D04B394674
:101D200004EB1E5401F004F9AB1CC3F31303022BA4
:101D300082468B464FF0000230DC002301F014FD98
:101D4000002800F0C780002C00F04381204601F0FD
:101D50003DFAADA3D3E9002306460F4601F09CFAF5
:101D6000ABA3D3E9002304460D463046394601F0C3
:101D700093FA02460B462046294601F0DBF80AE0BA
:101D8000B6498B424FF00002B4DD30463946324648
:101D90003B4601F0CFF805B0BDE8F08F4FF080432F
:101DA00001F0C8F802460B465046594601F09EFB2A
:101DB00006460F462046CDE9006701F007FA324695
:101DC000CDE902013B463046394601F065FA02464C
:101DD0000B468046894601F05FFA8FA3D3E90023C2
:101DE00006460F4601F058FA8DA3D3E9002301F00F
:101DF000A1F832463B4601F04FFA8BA3D3E900230A
:101E000001F098F832463B4601F046FA88A3D3E940
:101E1000002301F08FF842464B4601F03DFA86A3BD
:101E2000D3E90023804689463046394601F034FA2A
:101E300083A3D3E9002301F07DF832463B4601F04D
:101E40002BFA81A3D3E9002301F074F832463B4614
:101E500001F022FA0B4602464946404601F06AF874
:101E6000A5F5C223C5F5D725A3F27A4351351D4305
:101E7000002D06460F4653DD00227A4B5046594648
:101E800001F00AFA52465B4601F006FA804689469E
:101E9000002C60D132463B4601F04CF8DDE90023CE
:101EA00001F0FAF902460B464046494601F040F877
:101EB00002460B465046594601F03AF805B0BDE8D7
:101EC000F08F002200230020674901F00FFB05B0CE
:101ED000BDE8F08F52465B465046594601F0DCF9AA
:101EE0005BA3D3E9002306460F465046594601F04E
:101EF000D3F902460B4600205A4901F019F8024670
:101F00000B463046394601F0C7F906460F46002C0D
:101F100062D15046594632463B4601F009F83AE74D
:101F2000002C00F0A380DDE9028937A3D3E9002368
:101F30004046494601F0B0F932463B4604460D465C
:101F40005046594600F0F4FFDDE9002301F0A4F902
:101F500006460F464CE02CA3D3E90023DDE902013D
:101F600001F09AF932463B4604460D464046494642
:101F700000F0E0FFDDE9002301F08EF924A3D3E9AE
:101F8000002306460F46DDE9020101F085F902460D
:101F90000B463046394600F0CDFF02460B46404620
:101FA000494600F0C5FF52465B4600F0C1FF0246BD
:101FB0000B462046294600F0BBFF05B0BDE8F08F78
:101FC00002460B4600F0B4FF0022002301F08EFA17
:101FD000E1E600200021DEE6204601F0F7F80AA342
:101FE000D3E900238046894601F056F904460D46A0
:101FF00007A3D3E900234046494601F04DF90246C4
:102000000B4630463946CCE70000E0FE422EE63F64
:10201000763C7935EF39EA3D44523EDF12F1C23F5A
:10202000DE03CB966446C73F599322942449D23F9E
:10203000935555555555E53F9FC678D0099AC33FEE
:10204000AF788E1DC571CC3F04FA97999999D93F05
:10205000555555555555D53F00005043FFFFEF7F6F
:102060000000F03F0000E03F000050C302460B4676
:102070005046594600F05CFFDDE9002301F00CF901
:1020800016E700BFAFF30080B1F5801F2DE9F843DC
:1020900004460D460B461ADA024621F0004632434A
:1020A00059D000295FDB00223B4B01F0F5F80B46CD
:1020B0000D463A498B4204466FF035020CDD20464E
:1020C000294622462B4600F035FFBDE8F883334908
:1020D0008B424FF00002F2DC1815A0F2FF301044E2
:1020E0004FEAD0794844C3F3130801F06FF8C9F5FB
:1020F0007F73033348EA035506460F4620462946B8
:10210000FFF7DAFD1EA3D3E9002380468946304657
:10211000394601F0C1F81CA3D3E9002304460D465B
:102120003046394601F0B8F819A3D3E90023064632
:102130000F464046494601F0AFF802460B4630468E
:10214000394600F0F7FE02460B462046294600F0CD
:10215000F1FEBDE8F883002200230020104901F0C1
:10216000C5F9BDE8F88302460B4600F0E1FE002207
:10217000002301F0BBF9BDE8F88300BFAFF3008096
:1021800000609F501344D33F362BF111F3FE593DAD
:102190000EE526157BCBDB3F00005043FFFFEF7FB2
:1021A000000050C3AFF300802DE9F04FAA4A20F0A1
:1021B0000044944289B007460D4664DDA74A944224
:1021C0001CDC0028A64940F3EC8001F053FBA54B32
:1021D00024F00F049C42064664D0A34901F04AFB58
:1021E00001462860304601F045FB9F4901F042FB63
:1021F00001236860184609B0BDE8F08F9B4A9442FD
:1022000062DDB4F1FF4F46DAE615863EA4EBC65414
:10221000204601F0FFFD01F0E3FB034601462046A6
:10222000059301F027FB4FF0874101F02DFC80461C
:1022300001F0F0FD01F0D4FB01460446404606944F
:1022400001F018FB4FF0874101F01EFC00210790C0
:1022500001F0AEFD002800F0C5802046002101F00D
:10226000A7FD002814BF0123022302228049009207
:102270000191324605A8294600F0CCF9002FC0F2A2
:10228000A780034603E00022286000234A60184626
:1022900009B0BDE8F08F014601F0ECFA0023686058
:1022A0002860F4E7734901F0E5FA7349044601F048
:1022B000E1FA01462860204601F0DCFA6E4901F09F
:1022C000D9FA01236860E2E700F086FD6B49804699
:1022D00001F0DAFB4FF07C5101F0CEFA01F09AFDEB
:1022E000064601F07DFB5E49834601F0CDFB0146C9
:1022F000404601F0BFFA5C498146584601F0C4FBF4
:102300001F2E8246484619DC5D4A711E24F0FF03E9
:1023100052F82120934211D0514601F0ABFA804689
:10232000C5F800804146484601F0A4FA514601F044
:10233000A1FA002F686057DB3346A8E7514601F049
:1023400099FAE215C0F3C753D31A082B8046E7DD8C
:1023500048490392584601F097FB8046414648465B
:1023600001F088FA04462146484601F083FA4146C6
:1023700001F080FA40498046584601F085FB41460D
:1023800001F078FA82465146204601F073FA039A2A
:10239000C0F3C753D21A192A804641DC2860A146EF
:1023A000C0E701F069FA2F4B24F00F049C42064667
:1023B00023D02D4901F060FA01462860304601F033
:1023C00059FA294901F058FA4FF0FF3368605EE787
:1023D00095E80C0002F1004103F1004229604342FC
:1023E0006A6054E7032340E708F1004800F1004029
:1023F000C5F800806860734249E71E4901F03CFA65
:102400001D49044601F038FA01462860204601F0D3
:1024100031FA194901F030FA4FF0FF33686036E7BE
:102420001849584601F030FB80464146204601F0ED
:1024300021FA81464946204601F01CFA414601F046
:1024400019FA11490446584601F01EFB214601F0D5
:1024500011FA824648465FE7D80F493FE3CB164062
:10246000800FC93FD00FC93F43443537800F4943E0
:10247000104000080044353708A3852E84F9223F18
:10248000903F000800A3852E32318D242DE9F843BA
:1024900020F00044B4F1485F06460F4649DA01F0E7
:1024A000B9FC002800F09D803146304601F0ECFA7E
:1024B0004E49054601F0E8FA4D4901F0DDF929469B
:1024C00001F0E2FA4B4901F0D5F9294601F0DCFAB6
:1024D000494901F0D1F9294601F0D6FA474901F0FE
:1024E000C9F9294601F0D0FA454901F0C5F9294654
:1024F00001F0CAFA804628464FF07C5101F0C4FA38
:1025000041460446284601F0BFFA394605463046A2
:1025100001F0BAFA0146284601F0ACF9014620461E
:1025200001F0A8F901464FF07E5001F0A3F9BDE893
:10253000F883014601F0A8FA2C49054601F0A4FAF7
:102540002B4901F099F9294601F09EFA294901F039
:1025500091F9294601F098FA274901F08DF92946A9
:1025600001F092FA254901F085F9294601F08CFA2B
:10257000234901F081F9294601F086FA214B9C425A
:102580008046B8DD204B9C4227DC04F17F44214685
:102590004FF07E5001F06EF981464FF07C51284695
:1025A00001F072FA214601F065F9414604462846D9
:1025B00001F06AFA39460546304601F065FA0146EF
:1025C000284601F057F90146204601F053F901462B
:1025D000484601F04FF9BDE8F883DFF834900B4C22
:1025E000DBE74FF07E50BDE8F88300BF4ED747AD24
:1025F000F6740F317CF29334010DD037610BB63A8B
:10260000ABAA2A3D9999993E0000483F0000903EB0
:102610000000383F2DE9F04FDFB0BC4C0A93013B7E
:102620000193D31E48BF131D689D0891DB1023EA58
:10263000E37354F825400C931946DB4302EBC303C4
:102640000794019A0693079B0390D418A1EB020507
:1026500015D42C44013421AE699F08E057F82500B9
:1026600001F0BEF90135A54246F8040F07D0002D50
:10267000F4DA01350020A54246F8040FF7D1079B94
:10268000002B2CDB079B0A9A1946019B01EB0208E1
:10269000C2EB827722AA02EB830502EB8808BF0017
:1026A00049AE019B002BC0F2F381039B05EB0709A8
:1026B000A3F1040B2C464FF0000A54F804095BF810
:1026C000041F01F0E1F90146504601F0D5F84C45F0
:1026D0008246F2D10435454546F804AFE1D1079D65
:1026E00005F18043013B9B001A1D0EA90A440B44CF
:1026F0000D920B93AB005EA91A460293CB18002DE6
:1027000053F8508C20DD4AAFBC180DAE4FF06E511F
:10271000404601F0B9F901F07DFB01F061F94FF09D
:102720008741814601F0B0F90146404601F0A2F828
:1027300001F070FB54F8041D46F8040F484601F000
:102740009BF8BC428046E1D1069E4046314600F0EF
:102750008DFB4FF07851044601F096F900F040FBF4
:102760004FF0824101F090F90146204601F082F8D5
:10277000044601F04FFB074601F032F901462046BE
:1027800001F078F8002E8046344640F36981691ED6
:102790000EABC6F1080253F8213043FA02F000FAFA
:1027A00002F60EAA9E1BC4F1070342F821600744FB
:1027B0001E41002E2FDD002D07F1010740F3F381AC
:1027C000002214460DA907E0C3F580700BB1086024
:1027D0000124013295420BDD51F8043F002CF3D067
:1027E0000132C3F1FF0395420B604FF00104F3DCAB
:1027F000069B002B0DDD012B00F03981022B08D147
:102800006A1E0EAB0EA953F8223003F03F0341F8C5
:102810002230022E7CD04046002101F0C9FA002867
:1028200000F09080079B6C1EA3420DDC029B0D986C
:102830000EAA1344002253F8041D834242EA010207
:10284000F9D1002A40F09881079B0EAA013B52F86B
:102850002330002B40F0A5810B9A012352F8041D70
:1028600001330029FAD0EB181A4609936B1C9342E6
:1028700041DC0C9A9E180A9B099A05EB030B06F1A2
:102880008046551B699A013E02EB8606AA004FEA74
:102890008B03049222AA02EB03090593029B4AAA26
:1028A00002EB0308002556F8040F01F099F8019B8C
:1028B00049F8040B002B20DB029A059BAC18EB189F
:1028C00022AAD718039B4FF0000B1444A3F1040A6B
:1028D00057F804095AF8041F01F0D6F80146584683
:1028E00000F0CAFFA7428346F2D1049B48F804BF18
:1028F00004359D42D7D1099DFCE6049B04354FF079
:10290000000B9D4248F804BFCDD1F4E728430008EE
:1029100041464FF07E5000F0ADFF8046002C3FF462
:102920007AAF06994FF07E5000F0A0FA014640467B
:1029300000F0A0FF80464046002101F039FA00284F
:102940007FF470AF069B02975942404600F08EFA22
:102950004FF08741044601F049FA002800F08781D2
:102960004FF06E51204601F08FF801F053FA01F05C
:1029700037F84FF08741074601F086F801462046B8
:1029800000F078FF01F046FA0EAB6C1C43F825000E
:10299000384601F03FFA069B083306930EAB43F826
:1029A000240006994FF07E5000F060FA002C074694
:1029B000C0F2CB80631C9D0001930EAB03EB050AB4
:1029C0004AAB03EB05095AF8040D01F009F8394642
:1029D00001F05AF84FF06E5149F8040D384601F0F5
:1029E00053F80EAB9A450746EDD1083D4AABDDF8EA
:1029F0001CA0DDF804B0039603EB0509002704943E
:102A0000BAF1000FC0F29E80002FC0F29B809C4E56
:102A10004FF000084C46002501E0BD420DDC54F8A3
:102A2000041F56F8040B01F02FF80146404600F051
:102A300023FF0135AA458046EFDA5EAB03EB87033F
:102A400001375F45A9F1040943F8A08CD8D1689BF0
:102A5000039E049C032B58D8DFE803F05D3232A7B5
:102A60000FD16B1E0EAA52F823603612A1E66A1E21
:102A70000EAB0EA953F8223003F07F0341F8223049
:102A8000C7E64FF07C5101F0B1F950B90646C2E6F5
:102A900004354FF0000A454546F804AF7FF401AE17
:102AA0001DE6002D07F10107C8BF02263FF788AEDB
:102AB00041464FF07E5000F0DDFE02268046AAE639
:102AC000019B36AD05EB8308002058F8041D00F08B
:102AD000D3FEA845F9D1002E41D0089A00F1004359
:102AE00001461360369800F0C5FE002C09DD36AFB4
:102AF0000125013557F8041F00F0BEFEAC42F8DA9C
:102B00000EB100F10040089B5860029B03F00700E3
:102B10005FB0BDE8F08F019B36AA002002EB83086E
:102B2000013C58F8041D00F0A7FE631CF8D10EB15B
:102B300000F10040089B1860029B03F007005FB0A3
:102B4000BDE8F08F4FF0000877E7689B032BDCD8D7
:102B5000DFE803F0100202870020002EBDD1089BA1
:102B600001461860369800F085FE002CBFDC089BFB
:102B70005860CAE70020DAE70EAB069A53F8243013
:102B80000297083A0692002B7FF40BAF0EAB03EBD3
:102B9000840353F8041D013C083A0029F9D0069239
:102BA000FFE601235FE6002422E6002C59DDA500A4
:102BB0005EAB2B440DF1D80853F8A09C08EB050739
:102BC00057F804BD4846594600F056FE8246514625
:102BD000584600F04FFE0146484600F04DFE47457E
:102BE000D1467860C7F800A0EAD1012C39DD5EAB90
:102BF0002B4408EB050753F8A04C0DF1DC0B57F8FC
:102C000004AD2146504600F037FE81464946504605
:102C100000F030FE214600F02FFE5F454C46786004
:102C2000C7F80090EBD1043508EB0504002038AD5F
:102C300054F8041D00F020FEAC42F9D1A6B1369A3A
:102C4000379B00F1004002F1004203F10043089C71
:102C50006360029BA06003F0070022605FB0BDE8E4
:102C6000F08F0020002EEAD1369A379BEFE72046FE
:102C700001F0D0F80EAB2C4643F8250091E600BFDA
:102C8000344300082DE9F84320F00043B3F1485FD6
:102C900004460F46904603DA01F0BCF8002857D0EE
:102CA0002146204600F0F0FE2146054600F0ECFEED
:102CB00029490646284600F0E7FE284900F0DAFDDB
:102CC000294600F0E1FE264900F0D6FD294600F035
:102CD000DBFE244900F0CEFD294600F0D5FE224956
:102CE00000F0CAFD8146B8F1000F22D038464FF0FF
:102CF0007C5100F0C9FE49468046304600F0C4FED3
:102D00000146404600F0B6FD294600F0BDFE3946BA
:102D100000F0B0FD15490546304600F0B5FE01460D
:102D2000284600F0A9FD0146204600F0A3FDBDE8BD
:102D3000F8834946284600F0A7FE0C4900F09AFDAA
:102D4000314600F0A1FE214600F096FDBDE8F88373
:102D50002046BDE8F88300BFD3C92E2F342FD732C9
:102D60001BEF3836010D50398988083CABAA2A3E42
:102D700010B431F0004408D0114BA1F580129A42F2
:102D800008D804205DF8044B704718B902205DF89C
:102D9000044B704701F1FF41094B01F5E0019942F5
:102DA000EFD9B4F5801F01D20320EBE7054B9C421D
:102DB00001D00020E6E7B0FA80F04009E2E700BF6A
:102DC000FFFFDF7F0000F07F0020704700200149F7
:102DD000704700BF0000F87F20F00040704700BF40
:102DE0002DE9F04120F00047FC0D7F3C162C0546F4
:102DF00013DC002C80461BDB194F2741074214D0FF
:102E0000184900F039FD002100F0FAFF68B1002DEB
:102E10001BDB28EA0700BDE8F081B7F1FF4F04D3C0
:102E2000014600F029FDBDE8F0812846BDE8F081AB
:102E30000C4900F021FD002100F0E2FF0028F4D051
:102E4000002D07DB0020BDE8F0814FF40003234193
:102E50009844DEE7002FE8D00348BDE8F08100BFCA
:102E6000FFFF7F00CAF24971000080BF30F00042CE
:102E700038B50346044615D0B2F1FF4F0ED2B2F575
:102E8000000F0D460FD3D20D2A44FE2A2EDC002A55
:102E90001DDD24F0FF4444EAC25038BD014600F075
:102EA000EBFC38BD38BD4FF0984100F0EDFD184AFD
:102EB0009542034607DBC0F3C7520446193AE3E7DD
:102EC000144800F02BF8134900F0DEFD38BD12F174
:102ED000160F13DA4CF2503295421946F0DD0E48C7
:102EE00000F01CF80C4900F0CFFD38BD19460A4827
:102EF00000F014F8084900F0C7FD38BD193224F07D
:102F0000FF4040EAC2504FF04C5100F0BDFD38BDCB
:102F1000B03CFFFF6042A20DCAF2497101F00041CE
:102F200020F000400843704781F0004102E000BFFC
:102F300083F0004330B54FEA41044FEA430594EA79
:102F4000050F08BF90EA020F1FBF54EA000C55EAB4
:102F5000020C7FEA645C7FEA655C00F0E2804FEA85
:102F60005454D4EB5555B8BF6D420CDD2C4480EA67
:102F7000020281EA030382EA000083EA010180EA97
:102F8000020281EA0303362D88BF30BD11F0004FE5
:102F90004FEA01314FF4801C4CEA113102D040421B
:102FA00061EB410113F0004F4FEA03334CEA133356
:102FB00002D0524263EB430394EA050F00F0A7806E
:102FC000A4F10104D5F1200E0DDB02FA0EFC22FA69
:102FD00005F2801841F1000103FA0EF2801843FA5D
:102FE00005F359410EE0A5F120050EF1200E012A4E
:102FF00003FA0EFC28BF4CF0020C43FA05F3C0188C
:1030000051EBE37101F0004507D54FF0000EDCF104
:10301000000C7EEB00006EEB0101B1F5801F1BD3AD
:10302000B1F5001F0CD349085FEA30004FEA3C0CB1
:1030300004F101044FEA445212F5800F80F09A80A7
:10304000BCF1004F08BF5FEA500C50F1000041EBAB
:10305000045141EA050130BD5FEA4C0C404141EBAF
:10306000010111F4801FA4F10104E9D191F0000FD6
:1030700004BF01460020B1FA81F308BF2033A3F159
:103080000B03B3F120020CDA0C3208DD02F1140C50
:10309000C2F10C0201FA0CF021FA02F10CE002F18B
:1030A0001402D8BFC2F1200C01FA02F120FA0CFC84
:1030B000DCBF41EA0C019040E41AA2BF01EB0451CD
:1030C000294330BD6FEA04041F3C1CDA0C340EDCCB
:1030D00004F11404C4F1200220FA04F001FA02F30E
:1030E00040EA030021FA04F345EA030130BDC4F1CC
:1030F0000C04C4F1200220FA02F001FA04F340EAC1
:103100000300294630BD21FA04F0294630BD94F071
:10311000000F83F4801306BF81F480110134013D58
:103120004EE77FEA645C18BF7FEA655C29D094EAC9
:10313000050F08BF90EA020F05D054EA000C04BF47
:103140001946104630BD91EA030F1EBF0021002032
:1031500030BD5FEA545C05D14000494128BF41F0D1
:10316000004130BD14F580043CBF01F5801130BD35
:1031700001F0004545F0FE4141F470014FF00000C0
:1031800030BD7FEA645C1ABF194610467FEA655C71
:103190001CBF0B46024650EA013406BF52EA033513
:1031A00091EA030F41F4002130BD00BF90F0000F01
:1031B00004BF0021704730B54FF4806404F132043D
:1031C0004FF000054FF0000150E700BF90F0000FF6
:1031D00004BF0021704730B54FF4806404F132041D
:1031E00010F0004548BF40424FF000013EE700BFED
:1031F00042004FEAE2014FEA31014FEA02701FBF7D
:1032000012F07F4393F07F4F81F06051704792F04E
:10321000000F14BF93F07F4F704730B54FF46074C8
:1032200001F0004521F0004120E700BF50EA010213
:1032300008BF704730B54FF000050AE050EA0102C0
:1032400008BF704730B511F0004502D5404261EB30
:1032500041014FF4806404F132045FEA915C3FF471
:10326000DCAE4FF003025FEADC0C18BF03325FEA0A
:10327000DC0C18BF033202EBDC02C2F1200300FABF
:1032800003FC20FA02F001FA03FE40EA0E0021FAE4
:1032900002F11444C1E600BF70B54FF0FF0C4CF4CE
:1032A000E06C1CEA11541DBF1CEA135594EA0C0F84
:1032B00095EA0C0F00F0DEF82C4481EA030621EABF
:1032C0004C5123EA4C5350EA013518BF52EA0335FA
:1032D00041F4801143F4801338D0A0FB02CE4FF0AC
:1032E0000005E1FB02E506F00042E0FB03E54FF0DC
:1032F0000006E1FB03569CF0000F18BF4EF0010ED4
:10330000A4F1FF04B6F5007F64F5407404D25FEACF
:103310004E0E6D4146EB060642EAC62141EA555182
:103320004FEAC52040EA5E504FEACE2EB4F1FD0CC4
:1033300088BFBCF5E06F1ED8BEF1004F08BF5FEA42
:10334000500E50F1000041EB045170BD06F00046F4
:1033500046EA010140EA020081EA0301B4EB5C04A1
:10336000C2BFD4EB0C0541EA045170BD41F4801199
:103370004FF0000E013C00F3AB8014F1360FDEBFBE
:10338000002001F0004170BDC4F10004203C35DA9A
:103390000C341BDC04F11404C4F1200500FA05F31D
:1033A00020FA04F001FA05F240EA020001F00042BE
:1033B00021F0004110EBD37021FA04F642EB060134
:1033C0005EEA430E08BF20EAD37070BDC4F10C045E
:1033D000C4F1200500FA04F320FA05F001FA04F222
:1033E00040EA020001F0004110EBD37041F100010E
:1033F0005EEA430E08BF20EAD37070BDC4F1200519
:1034000000FA05F24EEA020E20FA04F301FA05F280
:1034100043EA020321FA04F001F0004121FA04F228
:1034200020EA020000EBD3705EEA430E08BF20EAF8
:10343000D37070BD94F0000F0FD101F00046400032
:1034400041EB010111F4801F08BF013CF7D041EAB4
:10345000060195F0000F18BF704703F000465200B8
:1034600043EB030313F4801F08BF013DF7D043EA89
:103470000603704794EA0C0F0CEA135518BF95EA3F
:103480000C0F0CD050EA410618BF52EA4306D1D1C6
:1034900081EA030101F000414FF0000070BD50EAE5
:1034A000410606BF1046194652EA430619D094EA6F
:1034B0000C0F02D150EA013613D195EA0C0F05D159
:1034C00052EA03361CBF104619460AD181EA0301AD
:1034D00001F0004141F0FE4141F470014FF0000065
:1034E00070BD41F0FE4141F4780170BD70B54FF000
:1034F000FF0C4CF4E06C1CEA11541DBF1CEA135580
:1035000094EA0C0F95EA0C0F00F0A7F8A4EB050461
:1035100081EA030E52EA03354FEA013100F0888058
:103520004FEA03334FF0805545EA131343EA126321
:103530004FEA022245EA111545EA10654FEA0026D6
:103540000EF000419D4208BF964244F1FD0404F58F
:10355000407402D25B084FEA3202B61A65EB0305EB
:103560005B084FEA32024FF480104FF4002CB6EBA8
:10357000020E75EB030E22BFB61A754640EA0C0028
:103580005B084FEA3202B6EB020E75EB030E22BF68
:10359000B61A754640EA5C005B084FEA3202B6EBA9
:1035A000020E75EB030E22BFB61A754640EA9C0068
:1035B0005B084FEA3202B6EB020E75EB030E22BF38
:1035C000B61A754640EADC0055EA060E18D04FEAF6
:1035D000051545EA16754FEA06164FEAC30343EA96
:1035E00052734FEAC2025FEA1C1CC0D111F4801F63
:1035F0000BD141EA00014FF000004FF0004CB6E75C
:1036000011F4801F04BF01430020B4F1FD0C88BFFA
:10361000BCF5E06F3FF6AFAEB5EB030C04BFB6EB05
:10362000020C5FEA500C50F1000041EB045170BDF8
:103630000EF0004E4EEA113114EB5C04C2BFD4EB25
:103640000C0541EA045170BD41F480114FF0000EA9
:10365000013C90E645EA060E8DE60CEA135594EA25
:103660000C0F08BF95EA0C0F3FF43BAF94EA0C0F28
:103670000AD150EA01347FF434AF95EA0C0F7FF49D
:1036800025AF104619462CE795EA0C0F06D152EAF1
:1036900003353FF4FDAE1046194622E750EA4106D5
:1036A00018BF52EA43067FF4C5AE50EA41047FF4E6
:1036B0000DAF52EA43057FF4EBAE12E74FF0FF3C4B
:1036C00006E000BF4FF0010C02E000BF4FF0010C1C
:1036D0004DF804CD4FEA410C7FEA6C5C4FEA430C95
:1036E00018BF7FEA6C5C1BD001B050EA410C0CBFE4
:1036F00052EA430C91EA030F02BF90EA020F002046
:10370000704710F1000F91EA030F58BF994208BFAC
:1037100090422CBFD8176FEAE37040F00100704769
:103720004FEA410C7FEA6C5C02D150EA013C07D1C0
:103730004FEA430C7FEA6C5CD6D152EA033CD3D00B
:103740005DF8040B704700BF8446104662468C4605
:103750001946634600E000BF01B5FFF7B7FF002838
:1037600048BF10F1000F01BD4DF808EDFFF7F4FF61
:103770000CBF012000205DF808FB00BF4DF808EDEC
:10378000FFF7EAFF34BF012000205DF808FB00BF0F
:103790004DF808EDFFF7E0FF94BF012000205DF831
:1037A00008FB00BF4DF808EDFFF7CEFF94BF0120E6
:1037B00000205DF808FB00BF4DF808EDFFF7C4FFDF
:1037C00034BF012000205DF808FB00BF4FEA410232
:1037D000B2F1E04324BFB3F5001CDCF1FE5C0DD96F
:1037E00001F0004C4FEAC0024CEA5070B2F1004FB9
:1037F00040EB830008BF20F00100704711F0804FBC
:1038000021D113F13872BCBF01F00040704741F480
:1038100080114FEA5252C2F11802C2F1200C10FA84
:103820000CF320FA02F018BF40F001004FEAC12368
:103830004FEAD32303FA0CFC40EA0C0023FA02F30C
:103840004FEA4303CCE77FEA625307D150EA0133E2
:103850001EBF4FF0FE4040F44000704701F00040B2
:1038600040F0FE4040F40000704700BF80F0004090
:1038700002E000BF81F0004142001FBF5FEA410348
:1038800092EA030F7FEA226C7FEA236C6AD04FEA48
:103890001262D2EB1363C1BFD2184140484041408D
:1038A000B8BF5B42192B88BF704710F0004F40F43F
:1038B000000020F07F4018BF404211F0004F41F45B
:1038C000000121F07F4118BF494292EA030F3FD027
:1038D000A2F1010241FA03FC10EB0C00C3F120033A
:1038E00001FA03F100F0004302D5494260EB4000C9
:1038F000B0F5000F13D3B0F1807F06D340084FEA34
:10390000310102F10102FE2A51D2B1F1004F40EB28
:10391000C25008BF20F0010040EA03007047490090
:1039200040EB000010F4000FA2F10102EDD1B0FA5B
:1039300080FCACF1080CB2EB0C0200FA0CF0AABF50
:1039400000EBC25052421843BCBFD04018437047EE
:1039500092F0000F81F4000106BF80F400000132F4
:10396000013BB5E74FEA41037FEA226C18BF7FEACB
:10397000236C21D092EA030F04D092F0000F08BF0D
:103980000846704790EA010F1CBF0020704712F0F4
:103990007F4F04D1400028BF40F00040704712F133
:1039A00000723CBF00F50000704700F0004343F098
:1039B000FE4040F4000070477FEA226216BF0846CE
:1039C0007FEA23630146420206BF5FEA412390EA91
:1039D000010F40F4800070474FF0000304E000BF87
:1039E00010F0004348BF40425FEA000C08BF704738
:1039F00043F0964301464FF000001CE050EA0102FC
:103A000008BF70474FF000030AE000BF50EA010210
:103A100008BF704711F0004302D5404261EB4101FD
:103A20005FEA010C02BF84460146002043F0B64322
:103A300008BFA3F18053A3F50003BCFA8CF2083A47
:103A4000A3EBC25310DB01FA02FC634400FA02FC50
:103A5000C2F12002BCF1004F20FA02F243EB020057
:103A600008BF20F00100704702F1200201FA02FCB9
:103A7000C2F1200250EA4C0021FA02F243EB0200AC
:103A800008BF20EADC7070474FF0FF0C1CEAD052F0
:103A90001EBF1CEAD15392EA0C0F93EA0C0F6FD0B1
:103AA0001A4480EA010C400218BF5FEA41211ED08F
:103AB0004FF0006343EA501043EA5111A0FB01317B
:103AC0000CF00040B1F5000F3EBF490041EAD37150
:103AD0005B0040EA010062F17F02FD2A1DD8B3F1CC
:103AE000004F40EBC25008BF20F00100704790F03B
:103AF000000F0CF0004C08BF49024CEA502040EA8D
:103B000051207F3AC2BFD2F1FF0340EAC250704752
:103B100040F400004FF00003013A5DDC12F1190F90
:103B2000DCBF00F000407047C2F10002410021FA02
:103B300002F1C2F1200200FA02FC5FEA310040F11A
:103B4000000053EA4C0308BF20EADC70704792F093
:103B5000000F00F0004C02BF400010F4000F013ACB
:103B6000F9D040EA0C0093F0000F01F0004C02BFC6
:103B7000490011F4000F013BF9D041EA0C018FE735
:103B80000CEAD15392EA0C0F18BF93EA0C0F0AD03B
:103B900030F0004C18BF31F0004CD8D180EA010061
:103BA00000F00040704790F0000F17BF90F0004FFA
:103BB000084691F0000F91F0004F14D092EA0C0FDC
:103BC00001D142020FD193EA0C0F03D14B0218BF6F
:103BD000084608D180EA010000F0004040F0FE40B5
:103BE00040F40000704740F0FE4040F44000704751
:103BF0004FF0FF0C1CEAD0521EBF1CEAD15392EAD0
:103C00000C0F93EA0C0F69D0A2EB030280EA010CBF
:103C100049024FEA402037D04FF0805343EA111158
:103C200043EA10130CF000408B4238BF5B0042F1B6
:103C30007D024FF4000C8B4224BF5B1A40EA0C005B
:103C4000B3EB510F24BFA3EB510340EA5C00B3EB8D
:103C5000910F24BFA3EB910340EA9C00B3EBD10F7B
:103C600024BFA3EBD10340EADC001B0118BF5FEACD
:103C70001C1CE0D1FD2A3FF650AF8B4240EBC250F6
:103C800008BF20F0010070470CF0004C4CEA5020B7
:103C90007F32C2BFD2F1FF0340EAC250704740F406
:103CA00000004FF00003013A37E792F0000F00F0F8
:103CB000004C02BF400010F4000F013AF9D040EA76
:103CC0000C0093F0000F01F0004C02BF490011F40A
:103CD000000F013BF9D041EA0C0195E70CEAD15302
:103CE00092EA0C0F08D142027FF47DAF93EA0C0FE9
:103CF0007FF470AF084676E793EA0C0F04D14B02CD
:103D00003FF44CAF08466EE730F0004C18BF31F07E
:103D1000004CCAD130F000427FF45CAF31F0004378
:103D20007FF43CAF5FE700BF4FF0FF3C06E000BF11
:103D30004FF0010C02E000BF4FF0010C4DF804CD34
:103D40004FEA40024FEA41037FEA226C18BF7FEA44
:103D5000236C11D001B052EA530C18BF90EA010F46
:103D600058BFB2EB030088BFC81738BF6FEAE170D5
:103D700018BF40F0010070477FEA226C02D15FEA71
:103D8000402C05D17FEA236CE4D15FEA412CE1D0DD
:103D90005DF8040B704700BF844608466146FFE7A4
:103DA0000FB5FFF7C9FF002848BF10F1000F0FBD86
:103DB0004DF808EDFFF7F4FF0CBF012000205DF87F
:103DC00008FB00BF4DF808EDFFF7EAFF34BF012004
:103DD00000205DF808FB00BF4DF808EDFFF7E0FF9D
:103DE00094BF012000205DF808FB00BF4DF808EDEE
:103DF000FFF7D2FF94BF012000205DF808FB00BF51
:103E00004DF808EDFFF7C8FF34BF012000205DF832
:103E100008FB00BF4FEA4002B2F1FE4F0FD34FF054
:103E20009E03B3EB12620DD94FEA002343F0004327
:103E300010F0004F23FA02F018BF404270474FF0D5
:103E40000000704712F1610F01D1420205D110F05C
:103E5000004008BF6FF0004070474FF0000070470F
:103E60000028B8BF40427047014B1868704700BF38
:103E70004004002070B4840746D0541E002A41D06C
:103E8000CDB2034602E0621EE4B3144603F8015BC0
:103E90009A07F8D1032C2ED9CDB245EA05250F2C6F
:103EA00045EA054519D903F110022646103E0F2EAA
:103EB00042F8105C42F80C5C42F8085C42F8045C82
:103EC00002F11002F2D8A4F1100222F00F0204F065
:103ED0000F041032032C13440DD91E462246043A17
:103EE000032A46F8045BFAD8221F22F003020432A8
:103EF000134404F003042CB1C9B21C4403F8011BA1
:103F0000A342FBD170BC704714460346C2E700BF12
:103F1000000080BF00000000F304353F5E836C3F6B
:103F2000BE147B3F6DC47E3F0FB17F3F43EC7F3FAC
:103F300011FB7F3FC4FE7F3FB1FF7F3FECFF7F3F20
:103F4000FBFF7F3FFFFF7F3F00000000000080BFBE
:103F5000F30435BF15EFC3BEC2C547BE36BDC8BDED
:103F600030FB48BDB00AC9BC900E49BC880FC9BB24
:103F7000C60F49BBD50FC9BAD90F49BADA0FC9B9AB
:103F80006C6F6700000000006C6F6731300000004C
:103F9000000FC93F000F494000CB9640000FC940B9
:103FA0000053FB4000CB164100ED2F41000F49416B
:103FB0000031624100537B41003A8A4100CB964177
:103FC000005CA34100EDAF41007EBC41000FC94140
:103FD00000A0D5410031E24100C2EE410053FB4157
:103FE00000F20342003A0A420083104200CB16421C
:103FF00000141D42005C234200A5294200ED2F421F
:1040000000363642007E3C4200C74242000F494221
:10401000A2000000F9000000830000006E00000014
:104020004E000000440000001500000029000000C0
:10403000FC0000002700000057000000D100000035
:10404000F500000034000000DD000000C0000000AA
:10405000DB000000620000009500000099000000F5
:104060003C00000043000000900000004100000000
:10407000FE0000005100000063000000AB000000E3
:10408000DE000000BB000000C50000006100000071
:10409000B7000000240000006E0000003A0000009D
:1040A000420000004D000000D2000000E0000000CF
:1040B00006000000490000002E000000EA00000099
:1040C00009000000D1000000920000001C00000068
:1040D000FE0000001D000000EB0000001C000000BE
:1040E000B100000029000000A70000003E00000011
:1040F000E80000008200000035000000F50000002C
:104100002E000000BB0000004400000084000000FE
:10411000E90000009C000000700000002600000084
:10412000B40000005F0000007E00000041000000BD
:104130003900000091000000D600000039000000A6
:10414000830000005300000039000000F40000006C
:104150009C000000840000005F0000008B00000055
:10416000BD000000F9000000280000003B00000036
:104170001F000000F800000097000000FF00000092
:10418000DE00000005000000980000000F000000A5
:10419000EF0000002F000000110000008B00000065
:1041A0005A0000000A0000006D0000001F0000001F
:1041B0006D000000360000007E000000CF0000000F
:1041C00027000000CB00000009000000B70000003D
:1041D0004F000000460000003F00000066000000A5
:1041E0009E0000005F000000EA0000002D000000BB
:1041F0007500000027000000BA000000C7000000A2
:10420000EB000000E5000000F10000007B00000072
:104210003D0000000700000039000000F70000002A
:104220008A0000005200000092000000EA00000036
:104230006B000000FB0000005F000000B100000008
:104240001F0000008D0000005D000000080000005D
:10425000560000000300000030000000460000008F
:10426000FC0000007B0000006B000000AB000000C1
:10427000F0000000CF000000BC00000020000000A3
:104280009A000000F4000000360000001D0000004D
:10429000A9000000E30000009100000061000000A0
:1042A0005E000000E60000001B00000008000000A7
:1042B0006500000099000000850000005F0000001C
:1042C00014000000A0000000680000004000000092
:1042D0008D000000FF000000D800000080000000FA
:1042E0004D000000730000002700000031000000B6
:1042F0000600000006000000150000005600000047
:10430000CA00000073000000A8000000C9000000FF
:1043100060000000E20000007B000000C000000020
:104320008C0000006B00000004000000070000008B
:10433000090000000000C93F0000F0390000DA3732
:104340000000A2330000842E0000502B0000C22782
:104350000000D0220000C41F0000C61B000044174C
:044360004300000016
:10436400007A030A000000000000000001020304B8
:1043740006070809010000000000000004030020F3
:104384006C030020D40300200000000000000000A3
:104394000000000000000000000000000000000019
:1043A400000000000000000000000000604300085E
:1043B40000000000000000000000000000000000F9
:1043C40000000000000000000000000000000000E9
:1043D40000000000000000000000000000000000D9
:1043E40000000000000000000000000000000000C9
:1043F40000000000000000000000000000000000B9
:1044040000000000000000000000000000000000A8
:104414000000000000000000000000000000000098
:1044240001000000000000000E33CDAB34126DE635
:10443400ECDE05000B00000000000000000000009E
:104444000000000000000000000000000000000068
:104454000000000000000000000000000000000058
:104464000000000000000000000000000000000048
:104474000000000000000000000000000000000038
:0447A40018000020D9
:0400000508000000EF
:00000001FF
