:020000040800F2
:10000000488C0120D10500082906000829060008AF
:10001000290600082906000829060008000000003B
:100020000000000000000000000000002906000899
:10003000290600080000000029060008290600081B
:1000400029060008290600082906000829060008D4
:1000500029060008290600082906000829060008C4
:1000600029060008290600082906000829060008B4
:1000700029060008290600082906000829060008A4
:100080002906000845050008290600082906000879
:100090002906000829060008290600082906000884
:1000A0002906000829060008290600082906000874
:1000B0002906000829060008290600082906000864
:1000C0002906000829060008290600082906000854
:1000D0002906000829060008290600082906000844
:1000E0002906000829060008290600082906000834
:1000F0002906000829060008290600082906000824
:100100002906000829060008290600082906000813
:100110002906000829060008290600082906000803
:1001200029060008390500082906000829060008E4
:1001300029060008290600082906000829060008E3
:1001400029060008290600082906000829060008D3
:1001500029060008290600082906000829060008C3
:1001600029060008290600082906000829060008B3
:1001700029060008290600082906000829060008A3
:10018000290600082906000880B500AF104811496B
:1001900001F026F90346002B08D00F484FF44051D8
:1001A00000F006FF0A480B4901F056F90B480C49CC
:1001B00001F016F90346002B08D007484FF44041E0
:1001C00000F0F6FE0548064901F046F980BD00BF83
:1001D0002864024000080010000C0240A0600240A9
:1001E0000000202080B584B000AFF860B9607A606C
:1001F0003B60B86800F01AF83B68002B07D07B68BA
:10020000002B04D0F86879683A6800F08FF8BB6971
:10021000002B07D0FB69002B04D0F868B969FA6994
:1002200000F0FEF81037BD4680BD00BF80B586B037
:1002300000AF78600120012100F038FC07F10C03C9
:10024000184601F03BFA134B1B687A68C82101FB82
:1002500002F2B3FBF2F39BB2013B9BB2BB8164237E
:100260003B610023BB821023FB8107F10C034FF09D
:100270008040194601F0B8F94FF08040202101F08C
:1002800057FA4FF08040012101F032FA1837BD468D
:1002900080BD00BF0000002080B58AB000AF4FF4E1
:1002A0008060012100F020FC00233B6000237B6084
:1002B0000023BB604FF4A063FB603B46184600F090
:1002C000A3FC00233B6100233B7500237B754FF0AB
:1002D000C063FB614FF08053BB6100233B6201238D
:1002E00087F8243007F110030848194600F038FC5D
:1002F00006480C210122022300F0CAFC0348012118
:1003000000F0ACFD2837BD4680BD00BF0022014093
:1003100080B500AF0448012100F084FD02480121AE
:1003200000F09AFC80BD00BF0022014080B596B06D
:1003300000AFF860B9607A603448012100F098FBA2
:100340004FF08063FB61324B3B620023BB62FB6872
:10035000FB6200233B634FF480637B634FF40063D5
:10036000BB634FF40053FB634FF480733B644FF463
:1003700000337B640023BB640123FB6400233B65E3
:1003800000237B6507F11C032248194600F09AFF01
:100390002048012101F008F81E481021012201F037
:1003A00089F81C4ABB68D3601A4A7B6813611948F4
:1003B000012100F0DDFF39233B7400237B7401230E
:1003C000BB740123FB7407F11003184601F0ACF86D
:1003D00004237B6103233B760023FB7607F11403A0
:1003E0000D48194600F056FD4FF470437B61012320
:1003F0003B760223FB7607F114030848194600F008
:1004000049FDFFF749FF5837BD4680BD0C0040004D
:100410004C2201402864024000080240000C0240C7
:1004200080B586B000AFF860B9607A600F480121EE
:1004300000F01EFB4FF00050012100F037FB20239D
:100440003B6103233B750023FB7507F1100308484C
:10045000194600F01FFD00F07BF8F868B9687A686B
:1004600000F008F81837BD4680BD00BF0800200026
:10047000000C024080B598B000AFF860B9607A60B7
:1004800024233B6500237B650023BB650023FB65BC
:1004900007F150031020194600F068F811233B744F
:1004A00000237B740123BB740123FB7407F1100349
:1004B000184601F039F81E4800F032FE4FF0606334
:1004C0007B611C4BBB61FB687B624FF400633B6349
:1004D0004FF400537B6340233B620023BB624FF425
:1004E0008063FB624FF48073BB634FF40033FB63A4
:1004F00000233B6401237B640023BB640023FB6473
:1005000007F114030A48194600F0DCFE08480121EF
:1005100000F04AFF06481021012200F0CBFF044AF8
:10052000BB68D360024A7B6813616037BD4680BDFB
:10053000A06002401474004080B500AFFFF724FEB5
:1005400080BD00BF80B500AFFFF71EFE80BD00BFBD
:1005500080B500AF4FF00050012100F0E3FA4FF0FA
:100560000050002100F0DEFA80BD00BF80B485B0ED
:1005700000AF786039600023FB600023BB60134B41
:100580001B68FB607B6840F6FE7202FA03F3DB43F4
:10059000FA681340FB603B681A683B685B681A4363
:1005A0003B689B681A433B68DB681343BB607B680E
:1005B000BA6802FA03F3FA681343FB60034AFB6864
:1005C00013601437BD465DF8047B7047007400402B
:1005D00080B582B000AF0F4B7B600F4B3B6007E0F4
:1005E0003B681A1D3A607A68111D796012681A60BA
:1005F0003B680A4A9342F3D309480A494FF0000284
:100600008842B8BF40F8042BFADB00F011F8083735
:10061000BD4680BDE02C00080000002044040020FE
:10062000440400204484012080B400AFFEE700BFF2
:1006300090B587B002AF00F0CDFC474800214FF4E1
:10064000004202F0BFFA454B0093434B01934FF435
:1006500000504FF47A51404A404BFFF7C3FDFFF77B
:1006600057FE0023FB8112E0B7F90E40B7F90E30B8
:10067000394A32F81330184602F0F6F80246384B81
:1006800043F82420FB899BB201339BB2FB81B7F96D
:100690000E30B3F5804FE7DB4FF0FF330093304867
:1006A00000210822032300F063F80023FB814FF0B0
:1006B00000024FF00003C7E9002342E0B7F90E3013
:1006C0004FF4FA5202FB03F3002B02DA03F57F53D7
:1006D0003F339B13184601F0C1FC02460B461046FF
:1006E00019464FF000021F4B01F048FE02460B4630
:1006F000104619464FF000021B4B01F063FB024607
:100700000B46C7E90023B7F90E40D7E9000101F015
:100710002BF802460B46104619460DA3D3E90023D9
:1007200001F002FD02460B461046194601F096FF05
:1007300002460B4B43F82420FB899BB201339BB24A
:10074000FB81B7F90E30B3F5804FB7DBFEE700BF92
:1007500000000000009C914044040020444400201C
:100760004484002000E085400000F03FAFF30080AB
:100770002DE9F04F91B000AF78613961FA60BB604C
:10078000FB68B3F5804F02DCFB68002B00DC66E100
:10079000FB685A1EFB681340002B02D1FB68012B3B
:1007A00000DC5CE1BB68012B02DDBB680E2B00DDC9
:1007B00055E1BB6EB3F1FF3F03D0BB6E012B00D000
:1007C0004DE1FB685B107B60D7F80C904FF001089F
:1007D000CDE0BB68C8EB0303A34A52F823303B6368
:1007E000BB68C8EB0303A14A52F823307B63BB6E9E
:1007F000012B03D17B6B83F000437B634FEA6906D7
:100800004FF07E53FB634FF00003BB630025A7E06E
:100810002C467CE004EB060A23469B007A691344CD
:10082000196853469B007A6913441B6808461946A9
:1008300001F06AFF0346FB6223469B003A691344BA
:10084000196853469B003A6913441B6808461946C9
:1008500001F05AFF0346BB6223469B007A691344AA
:10086000196853469B007A6913441B680846194669
:1008700001F048FF03467B6223469B003A6913441C
:10088000196853469B003A6913441B680846194689
:1008900001F038FF03463B6253469B007A6902EB46
:1008A000030B786AF96B02F037F803463B60386A4D
:1008B000B96B02F031F803463868194601F022FF9F
:1008C0000346CBF8003053469B003A6902EB030A1B
:1008D000386AF96B02F020F803469B46786AB96BD8
:1008E00002F01AF803465846194601F00DFF034678
:1008F000CAF8003023469B007A691344FA6A1A60EA
:1009000023469B003A691344BA6A1A604C44FB6858
:100910009C42FFF67FAFFB6BFB61F86B396B01F01C
:10092000FBFF03461C46B86B796B01F0F5FF0346ED
:100930002046194601F0E6FE0346FB63B86B396BAF
:1009400001F0EAFF03461C46F869796B01F0E4FF09
:1009500003462046194601F0D7FE0346BB63013526
:10096000B542FFF655AF4FEA690908F10108BB68C7
:1009700098457FF72EAF0124254638E0AC422EDAA9
:1009800004F1FF3A6E1E33469B007A6913441B68DC
:10099000FB6233469B003A6913441B68BB623346D3
:1009A0009B007A6913445246920079690A4412689E
:1009B0001A6033469B003A691344524692003969E3
:1009C0000A4412681A6053469B007A691344FA6A13
:1009D0001A6053469B003A691344BA6A1A607E68EB
:1009E00001E0AD1B7610AE42FBDB35440134FB6801
:1009F0009C42C3DBBB6EB3F1FF3F00D12FE0F86830
:100A000001F036FF03464FF07E50194602F038F8E9
:100A100003463B6300241EE023469B007A69D518F9
:100A200023469B007A6913441B681846396B01F012
:100A300073FF03462B6023469B003A69D518234673
:100A40009B003A6913441B681846396B01F064FF38
:100A500003462B600134FB689C42DDDB00BF44375A
:100A6000BD46BDE8F08F00BF602C0008982C000840
:100A700080B483B000AF78600B46FB70FB78002B2E
:100A800006D00949084B1A6B7B6813430B6306E0D9
:100A90000549054B1A6B7B68DB4313400B630C372E
:100AA000BD465DF8047B70470038024080B483B0D7
:100AB00000AF78600B46FB70FB78002B06D009492D
:100AC000084B1A6C7B6813430B6406E00549054B21
:100AD0001A6C7B68DB4313400B640C37BD465DF832
:100AE000047B70470038024080B483B000AF786068
:100AF0000B46FB70FB78002B06D00949084B5A6C5B
:100B00007B6813434B6406E00549054B5A6C7B68D0
:100B1000DB4313404B640C37BD465DF8047B7047E4
:100B20000038024080B483B000AF78600B46FB70A1
:100B3000FB78002B06D00949084B1A6A7B681343DF
:100B40000B6206E00549054B1A6A7B68DB431340DC
:100B50000B620C37BD465DF8047B704700380240DD
:100B600080B485B000AF786039600023FB6000235B
:100B7000FB727B685B68FB60FB6823F0407323F4C7
:100B80008073FB603B681B791A023B681B68134348
:100B9000FA681343FB607B68FA685A607B689B685D
:100BA000FB60FA68174B1340FB603B681A693B68AF
:100BB000DB681A433B689B681A433B685B795B00C0
:100BC0001343FA681343FB607B68FA689A607B689A
:100BD000DB6AFB60FB6823F47003FB603B681B7DF2
:100BE000013BDAB2FB7A1343FB72FB7A1B05FA680E
:100BF0001343FB607B68FA68DA621437BD465DF820
:100C0000047B7047FDF7FFC080B485B000AF78600B
:100C10000023FB600E4B5B68FB60FA680D4B1340D2
:100C2000FB607B681A687B685B681A437B689B681B
:100C30001A437B68DB681343FA681343FB60044A7A
:100C4000FB6853601437BD465DF8047B704700BFF6
:100C500000230140E030FCFF80B483B000AF786037
:100C60000B46FB70FB78002B06D07B689B6843F03B
:100C700001027B689A6005E07B689B6823F00102B3
:100C80007B689A600C37BD465DF8047B704700BFF7
:100C900080B485B000AF7860084611461A46034616
:100CA000FB700B46BB7013467B700023FB60002378
:100CB000BB60FB78092B23D97B68DB68FB60FB7882
:100CC000A3F10A0213465B001344072202FA03F35E
:100CD000BB60BB68DB43FA681340FB607978FB7844
:100CE000A3F10A0213465B00134401FA03F3BB604D
:100CF000FA68BB681343FB607B68FA68DA601EE041
:100D00007B681B69FB60FA7813465B00134407227B
:100D100002FA03F3BB60BB68DB43FA681340FB6075
:100D20007978FA7813465B00134401FA03F3BB6049
:100D3000FA68BB681343FB607B68FA681A61BB788A
:100D4000062B21D87B685B6BFB60BB785A1E134671
:100D50009B0013441F2202FA03F3BB60BB68DB4312
:100D6000FA681340FB60F978BB785A1E13469B0063
:100D7000134401FA03F3BB60FA68BB681343FB60DA
:100D80007B68FA685A6347E0BB780C2B21D87B68F4
:100D90001B6BFB60BB78DA1F13469B0013441F22BA
:100DA00002FA03F3BB60BB68DB43FA681340FB60E5
:100DB000F978BB78DA1F13469B00134401FA03F35A
:100DC000BB60FA68BB681343FB607B68FA681A6310
:100DD00022E07B68DB6AFB60BB78A3F10D0213465F
:100DE0009B0013441F2202FA03F3BB60BB68DB4382
:100DF000FA681340FB60F978BB78A3F10D02134643
:100E00009B00134401FA03F3BB60FA68BB68134309
:100E1000FB607B68FA68DA621437BD465DF8047BD4
:100E2000704700BF80B483B000AF78600B46FB70A2
:100E3000FB78002B06D07B689B6843F480727B684C
:100E40009A6005E07B689B6823F480727B689A60F7
:100E50000C37BD465DF8047B704700BF80B483B09B
:100E600000AF78600B46FB70FB78002B06D07B68E8
:100E70009B6843F400727B689A6005E07B689B681E
:100E800023F400727B689A600C37BD465DF8047BE2
:100E9000704700BF80B487B000AF7860396000232E
:100EA0007B6100233B610023FB6000237B6176E0D4
:100EB0007B69012202FA03F33B613B681A683B69D4
:100EC0001340FB60FA683B699A4265D17B681A68F7
:100ED0007B695B00194603238B40DB431A407B6828
:100EE0001A607B681A683B681B7919467B695B004E
:100EF00001FA03F31A437B681A603B681B79012BE4
:100F000003D03B681B79022B2ED17B689A687B69E2
:100F10005B00194603238B40DB431A407B689A60D1
:100F20007B689A683B685B7919467B695B0001FACC
:100F300003F31A437B689A607B685A687B699BB2AB
:100F4000194601238B40DB431A407B685A607B685B
:100F50005B683A68927911467A6992B201FA02F2B4
:100F600092B21A437B685A607B68DA687B699BB2ED
:100F70005B00032101FA03F3DB431A407B68DA606C
:100F80007B68DA683B68DB7919467B695B0001FAAC
:100F900003F31A437B68DA607B6901337B617B6909
:100FA0000F2B85D91C37BD465DF8047B704700BF09
:100FB00080B483B000AF78600B467B807B685A6951
:100FC0007B885A407B685A610C37BD465DF8047BCC
:100FD000704700BF80B500AF114A114B1B6843F04A
:100FE000010313600E4B00229A600D4A0C4B1B68E4
:100FF00023F0847323F480331360094B094A5A6049
:10100000074A074B1B6823F480231360044B00221C
:10101000DA6000F00BF8044B4FF000629A6080BD7C
:10102000003802401030002400ED00E080B483B0AE
:1010300000AF00237B6000233B60354A344B1B68C4
:1010400043F480331360324B1B6803F400333B607E
:101050007B6801337B603B68002B03D17B68B3F571
:10106000A06FF0D12A4B1B6803F40033002B02D091
:1010700001233B6001E000233B603B68012B42D130
:10108000234A234B1B6C43F080531364214A214BAA
:101090001B6843F4804313601D4A1D4B9B6893609B
:1010A0001B4A1B4B9B6843F400439360184A184B40
:1010B0009B6843F4A0539360154B174A5A60144A37
:1010C000134B1B6843F08073136000BF104B1B6809
:1010D00003F00073002BF9D0104B40F205621A6048
:1010E0000B4A0B4B9B6823F003039360084A084BA1
:1010F0009B6843F00203936000BF054B9B6803F0BD
:101100000C03082BF9D10C37BD465DF8047B704702
:10111000003802400070004019544007003C024073
:1011200080B483B000AF78607B681B6823F0010255
:101130007B681A607B6800221A607B6800225A6014
:101140007B6800229A607B680022DA607B6800225C
:101150001A617B6821225A617B68454A934203D118
:10116000444B3D229A607EE07B68434A934204D11F
:10117000404B4FF474629A6075E07B683F4A93423B
:1011800004D13C4B4FF474129A606CE07B683C4A8B
:10119000934204D1374B4FF074629A6063E07B68EE
:1011A000384A934203D1334B374ADA605BE07B68BD
:1011B000364A934203D12F4B354ADA6053E07B68BD
:1011C000344A934203D12B4B334ADA604BE07B68BD
:1011D000324A934204D1274B4FF03D52DA6042E04D
:1011E0007B682F4A934203D12E4B3D229A603AE00E
:1011F0007B682D4A934204D12A4B4FF474629A6063
:1012000031E07B68294A934204D1264B4FF4741293
:101210009A6028E07B68264A934204D1214B4FF024
:1012200074629A601FE07B68224A934203D11D4B8F
:10123000154ADA6017E07B681F4A934203D1194BC5
:10124000134ADA600FE07B681C4A934203D1154BC6
:10125000114ADA6007E07B68194A934203D1114BC7
:101260004FF03D52DA600C37BD465DF8047B7047A5
:10127000106002400060024028600240406002406E
:1012800058600240706002403D00002088600240CB
:10129000400F0020A060024000003D20B8600240E6
:1012A000106402400064024028640240406402402E
:1012B000586402407064024088640240A0640240A6
:1012C000B864024080B485B000AF78603960002314
:1012D000FB607B681B68FB60FA68244B1340FB6073
:1012E0003B681A683B68DB681A433B685B691A43D2
:1012F0003B689B691A433B68DB691A433B681B6A7E
:101300001A433B685B6A1A433B689B6A1A433B6813
:101310005B6B1A433B689B6B1343FA681343FB6098
:101320007B68FA681A607B685B69FB60FB6823F086
:101330000703FB603B68DA6A3B681B6B1343FA6880
:101340001343FB607B68FA685A613B681A697B68E3
:101350005A603B685A687B689A603B689A687B6809
:10136000DA601437BD465DF8047B70473F801CF09F
:1013700080B483B000AF78600B46FB70FB78002B25
:1013800006D07B681B6843F001027B681A6005E0A9
:101390007B681B6823F001027B681A600C37BD462E
:1013A0005DF8047B704700BF80B483B000AF786005
:1013B0000B46FB70FB78002B06D07B681B6843F460
:1013C00080227B681A6005E07B681B6823F480221A
:1013D0007B681A600C37BD465DF8047B704700BF20
:1013E00080B487B000AF786039600023FB750023BC
:1013F000FB607B68154A934202D8154B3B6101E0C4
:10140000144B3B613B6803F00053002B03D03B6956
:101410005B68FB6002E03B691B68FB60FB6823F0D4
:10142000F02323F08213FB60FA683B681340002B23
:1014300002D00123FB7501E00023FB75FB7D1846FC
:101440001C37BD465DF8047B704700BF0F64024047
:10145000006002400064024080B485B000AF786054
:1014600039607B68104A934202D8104BFB6001E060
:101470000F4BFB603B6803F00053002B07D03B6829
:1014800023F0F02323F08213FA68D36006E03B6870
:1014900023F0F02323F08213FA6893601437BD46DB
:1014A0005DF8047B704700BF0F640240006002409B
:1014B0000064024080B485B000AFF860B9601346A4
:1014C000FB71BB6803F08003002B0FD0FB79002B6E
:1014D00006D0FB685B6943F08002FB685A6105E057
:1014E000FB685B6923F08002FB685A61BB68802B54
:1014F00014D0FB79002B08D0FB681A68BB6803F096
:101500001E031A43FB681A6008E0FB681A68BB6890
:1015100003F01E03DB431A40FB681A601437BD4614
:101520005DF8047B704700BF80B485B000AF786081
:101530000023FB730023BB730F237B737B68DB7873
:10154000002B38D0264BDB68DB4303F4E0631B0A37
:10155000FB73FB7BC3F10403BB737A7BFB7B42FA17
:1015600003F37B737B685B781A46BB7B02FA03F359
:10157000FB737B689A787B7B1340DAB2FB7B134367
:10158000FB73FB7B1B01FB73164A7B681B781344C0
:10159000FA7B83F80023134A7B681B785B09DBB274
:1015A00018467B681B7803F01F03012101FA03F33F
:1015B00042F820300FE00B497B681B785B09DBB2F7
:1015C00018467B681B7803F01F0301229A4000F144
:1015D000200341F823201437BD465DF8047B704793
:1015E00000ED00E000E100E080B485B000AF78607D
:1015F00039600023FB817B681B88FB817B68284A5C
:10160000934213D07B68274A93420FD07B68B3F193
:10161000804F0BD07B68244A934207D07B68234AD3
:10162000934203D07B68224A934208D1FB8923F07E
:101630007003FB813B685A88FB891343FB817B68FD
:101640001C4A93420CD07B681B4A934208D0FB890A
:1016500023F44073FB813B681A89FB891343FB81A8
:101660007B68FA891A803B685A687B68DA623B6853
:101670001A887B681A857B68094A934203D07B6885
:10168000084A934204D13B689B7A9AB27B681A86D7
:101690007B6801229A821437BD465DF8047B70474F
:1016A0000000014000040140000400400008004028
:1016B000000C0040001000400014004080B483B0D3
:1016C00000AF78607B684FF0FF325A607B68002281
:1016D0001A807B6800221A817B6800225A807B680E
:1016E00000229A720C37BD465DF8047B704700BF3C
:1016F00080B483B000AF78600B46FB70FB78002BA2
:1017000008D07B681B889BB243F001039AB27B68C8
:101710001A8007E07B681B889BB223F001039AB212
:101720007B681A800C37BD465DF8047B704700BFAC
:1017300080B483B000AF78600B467B807B689B8869
:101740009BB223F070039AB27B689A807B689B8877
:101750009AB27B8813439AB27B689A800C37BD4655
:101760005DF8047B704700BF2DE9F041DFF8EC80A5
:101770008AB006460F4600F073F898F9003001333E
:1017800004460D460BD03046394600F0F9F830B12A
:10179000304639460022002300F042FF20B920469F
:1017A00029460AB0BDE8F081284B98F80040019323
:1017B0000023CDE90267CDE9046708933046394636
:1017C0008CB9234D4FF0604400220023CDE906453B
:1017D00000F012FF002831D101230093684600F089
:1017E000FBF888B90CE01B4F002600220023CDE94E
:1017F000066700F001FF98B90123022C0093EDD198
:1018000001F0DAF921230360134800F0E7F8CDE98D
:101810000601089BABB9DDE906010AB0BDE8F0811D
:1018200002239C42009304D0684600F0D5F80028BB
:10183000EFD101F0C1F922230360EAE7022300930C
:10184000F2E701F0B9F9089B0360E4E7D02C000847
:10185000FFFFEFC70000F0FFD82C000814000020A5
:10186000B1F5801F2DE9F84304460D460B461ADA00
:10187000024621F00046324359D000295FDB0022A6
:101880003B4B00F051FC0B460D463A498B42044657
:101890006FF035020CDD2046294622462B4600F02B
:1018A00091FABDE8F88333498B424FF00002F2DC35
:1018B0001815A0F2FF3010444FEAD0794844C3F322
:1018C000130800F0CBFBC9F57F73033348EA0355D7
:1018D00006460F462046294600F086F81EA3D3E9A7
:1018E0000023804689463046394600F01DFC1CA383
:1018F000D3E9002304460D463046394600F014FC77
:1019000019A3D3E9002306460F464046494600F096
:101910000BFC02460B463046394600F053FA0246AD
:101920000B462046294600F04DFABDE8F883002218
:1019300000230020104900F021FDBDE8F883024695
:101940000B4600F03DFA0022002300F017FDBDE831
:10195000F88300BFAFF3008000609F501344D33F73
:10196000362BF111F3FE593D0EE526157BCBDB3FFF
:1019700000005043FFFFEF7F000050C3AFF3008033
:1019800010B431F0004408D0114BA1F580129A42F6
:1019900008D804205DF8044B704718B902205DF8A0
:1019A000044B704701F1FF41094B01F5E0019942F9
:1019B000EFD9B4F5801F01D20320EBE7054B9C4221
:1019C00001D00020E6E7B0FA80F04009E2E700BF6E
:1019D000FFFFDF7F0000F07F0020704700200149FB
:1019E000704700BF0000F87F2DE9F04FB1F5801F70
:1019F00085B006460F460B465ADA024621F00044EF
:101A0000224300F0F6800029C0F272810022DE4BF2
:101A100000F08AFB0B460F46DC498B4206466FF00E
:101A200035024ADCC3F3130505F5152404F6647486
:101A300004F4801E8EF07F5181F440111B15A3F237
:101A4000FF3341EA05079C1830460022D04B394647
:101A500004EB1E5400F0B4F9AB1CC3F31303022BC8
:101A600082468B464FF0000230DC002300F0C4FDBC
:101A7000002800F0C780002C00F04381204600F0D1
:101A8000EDFAADA3D3E9002306460F4600F04CFB68
:101A9000ABA3D3E9002304460D463046394600F097
:101AA00043FB02460B462046294600F08BF90AE02C
:101AB000B6498B424FF00002B4DD3046394632461B
:101AC0003B4600F07FF905B0BDE8F08F4FF0804352
:101AD00000F078F902460B465046594600F04EFC9D
:101AE00006460F462046CDE9006700F0B7FA3246B9
:101AF000CDE902013B463046394600F015FB02466F
:101B00000B468046894600F00FFB8FA3D3E90023E4
:101B100006460F4600F008FB8DA3D3E9002300F032
:101B200051F932463B4600F0FFFA8BA3D3E900237C
:101B300000F048F932463B4600F0F6FA88A3D3E9B4
:101B4000002300F03FF942464B4600F0EDFA86A331
:101B5000D3E90023804689463046394600F0E4FA4E
:101B600083A3D3E9002300F02DF932463B4600F071
:101B7000DBFA81A3D3E9002300F024F932463B4687
:101B800000F0D2FA0B4602464946404600F01AF9E8
:101B9000A5F5C223C5F5D725A3F27A4351351D43D8
:101BA000002D06460F4653DD00227A4B504659461B
:101BB00000F0BAFA52465B4600F0B6FA8046894613
:101BC000002C60D132463B4600F0FCF8DDE90023F2
:101BD00000F0AAFA02460B464046494600F0F0F8EB
:101BE00002460B465046594600F0EAF805B0BDE8FB
:101BF000F08F002200230020674900F0BFFB05B0F2
:101C0000BDE8F08F52465B465046594600F08CFACC
:101C10005BA3D3E9002306460F465046594600F021
:101C200083FA02460B4600205A4900F0C9F80246E2
:101C30000B463046394600F077FA06460F46002C30
:101C400062D15046594632463B4600F0B9F83AE771
:101C5000002C00F0A380DDE9028937A3D3E900233B
:101C60004046494600F060FA32463B4604460D467F
:101C70005046594600F0A4F8DDE9002300F054FA7C
:101C800006460F464CE02CA3D3E90023DDE9020110
:101C900000F04AFA32463B4604460D464046494665
:101CA00000F090F8DDE9002300F03EFA24A3D3E928
:101CB000002306460F46DDE9020100F035FA024630
:101CC0000B463046394600F07DF802460B4640464A
:101CD000494600F075F852465B4600F071F802463E
:101CE0000B462046294600F06BF805B0BDE8F08FA2
:101CF00002460B4600F064F80022002300F03EFB91
:101D0000E1E600200021DEE6204600F0A7F90AA364
:101D1000D3E900238046894600F006FA04460D46C2
:101D200007A3D3E900234046494600F0FDF90246E7
:101D30000B4630463946CCE70000E0FE422EE63F37
:101D4000763C7935EF39EA3D44523EDF12F1C23F2D
:101D5000DE03CB966446C73F599322942449D23F71
:101D6000935555555555E53F9FC678D0099AC33FC1
:101D7000AF788E1DC571CC3F04FA97999999D93FD8
:101D8000555555555555D53F00005043FFFFEF7F42
:101D90000000F03F0000E03F000050C302460B4649
:101DA0005046594600F00CF8DDE9002300F0BCF97C
:101DB00016E700BFAFF3008081F0004102E000BFF2
:101DC00083F0004330B54FEA41044FEA430594EAFB
:101DD000050F08BF90EA020F1FBF54EA000C55EA36
:101DE000020C7FEA645C7FEA655C00F0E2804FEA07
:101DF0005454D4EB5555B8BF6D420CDD2C4480EAE9
:101E0000020281EA030382EA000083EA010180EA18
:101E1000020281EA0303362D88BF30BD11F0004F66
:101E20004FEA01314FF4801C4CEA113102D040429C
:101E300061EB410113F0004F4FEA03334CEA1333D7
:101E400002D0524263EB430394EA050F00F0A780EF
:101E5000A4F10104D5F1200E0DDB02FA0EFC22FAEA
:101E600005F2801841F1000103FA0EF2801843FADE
:101E700005F359410EE0A5F120050EF1200E012ACF
:101E800003FA0EFC28BF4CF0020C43FA05F3C0180D
:101E900051EBE37101F0004507D54FF0000EDCF186
:101EA000000C7EEB00006EEB0101B1F5801F1BD32F
:101EB000B1F5001F0CD349085FEA30004FEA3C0C33
:101EC00004F101044FEA445212F5800F80F09A8029
:101ED000BCF1004F08BF5FEA500C50F1000041EB2D
:101EE000045141EA050130BD5FEA4C0C404141EB31
:101EF000010111F4801FA4F10104E9D191F0000F58
:101F000004BF01460020B1FA81F308BF2033A3F1DA
:101F10000B03B3F120020CDA0C3208DD02F1140CD1
:101F2000C2F10C0201FA0CF021FA02F10CE002F10C
:101F30001402D8BFC2F1200C01FA02F120FA0CFC05
:101F4000DCBF41EA0C019040E41AA2BF01EB04514E
:101F5000294330BD6FEA04041F3C1CDA0C340EDC4C
:101F600004F11404C4F1200220FA04F001FA02F38F
:101F700040EA030021FA04F345EA030130BDC4F14D
:101F80000C04C4F1200220FA02F001FA04F340EA42
:101F90000300294630BD21FA04F0294630BD94F0F3
:101FA000000F83F4801306BF81F480110134013DDA
:101FB0004EE77FEA645C18BF7FEA655C29D094EA4B
:101FC000050F08BF90EA020F05D054EA000C04BFC9
:101FD0001946104630BD91EA030F1EBF00210020B4
:101FE00030BD5FEA545C05D14000494128BF41F053
:101FF000004130BD14F580043CBF01F5801130BDB7
:1020000001F0004545F0FE4141F470014FF0000041
:1020100030BD7FEA645C1ABF194610467FEA655CF2
:102020001CBF0B46024650EA013406BF52EA033594
:1020300091EA030F41F4002130BD00BF90F0000F82
:1020400004BF0021704730B54FF4806404F13204BE
:102050004FF000054FF0000150E700BF90F0000F77
:1020600004BF0021704730B54FF4806404F132049E
:1020700010F0004548BF40424FF000013EE700BF6E
:1020800042004FEAE2014FEA31014FEA02701FBFFE
:1020900012F07F4393F07F4F81F06051704792F0D0
:1020A000000F14BF93F07F4F704730B54FF460744A
:1020B00001F0004521F0004120E700BF50EA010295
:1020C00008BF704730B54FF000050AE050EA010242
:1020D00008BF704730B511F0004502D5404261EBB2
:1020E00041014FF4806404F132045FEA915C3FF4F3
:1020F000DCAE4FF003025FEADC0C18BF03325FEA8C
:10210000DC0C18BF033202EBDC02C2F1200300FA40
:1021100003FC20FA02F001FA03FE40EA0E0021FA65
:1021200002F11444C1E600BF70B54FF0FF0C4CF44F
:10213000E06C1CEA11541DBF1CEA135594EA0C0F05
:1021400095EA0C0F00F0DEF82C4481EA030621EA40
:102150004C5123EA4C5350EA013518BF52EA03357B
:1021600041F4801143F4801338D0A0FB02CE4FF02D
:102170000005E1FB02E506F00042E0FB03E54FF05D
:102180000006E1FB03569CF0000F18BF4EF0010E55
:10219000A4F1FF04B6F5007F64F5407404D25FEA51
:1021A0004E0E6D4146EB060642EAC62141EA555104
:1021B0004FEAC52040EA5E504FEACE2EB4F1FD0C46
:1021C00088BFBCF5E06F1ED8BEF1004F08BF5FEAC4
:1021D000500E50F1000041EB045170BD06F0004676
:1021E00046EA010140EA020081EA0301B4EB5C0423
:1021F000C2BFD4EB0C0541EA045170BD41F480111B
:102200004FF0000E013C00F3AB8014F1360FDEBF3F
:10221000002001F0004170BDC4F10004203C35DA1B
:102220000C341BDC04F11404C4F1200500FA05F39E
:1022300020FA04F001FA05F240EA020001F000423F
:1022400021F0004110EBD37021FA04F642EB0601B5
:102250005EEA430E08BF20EAD37070BDC4F10C04DF
:10226000C4F1200500FA04F320FA05F001FA04F2A3
:1022700040EA020001F0004110EBD37041F100018F
:102280005EEA430E08BF20EAD37070BDC4F120059A
:1022900000FA05F24EEA020E20FA04F301FA05F202
:1022A00043EA020321FA04F001F0004121FA04F2AA
:1022B00020EA020000EBD3705EEA430E08BF20EA7A
:1022C000D37070BD94F0000F0FD101F000464000B4
:1022D00041EB010111F4801F08BF013CF7D041EA36
:1022E000060195F0000F18BF704703F0004652003A
:1022F00043EB030313F4801F08BF013DF7D043EA0B
:102300000603704794EA0C0F0CEA135518BF95EAC0
:102310000C0F0CD050EA410618BF52EA4306D1D147
:1023200081EA030101F000414FF0000070BD50EA66
:10233000410606BF1046194652EA430619D094EAF0
:102340000C0F02D150EA013613D195EA0C0F05D1DA
:1023500052EA03361CBF104619460AD181EA03012E
:1023600001F0004141F0FE4141F470014FF00000E6
:1023700070BD41F0FE4141F4780170BD70B54FF081
:10238000FF0C4CF4E06C1CEA11541DBF1CEA135501
:1023900094EA0C0F95EA0C0F00F0A7F8A4EB0504E3
:1023A00081EA030E52EA03354FEA013100F08880DA
:1023B0004FEA03334FF0805545EA131343EA1263A3
:1023C0004FEA022245EA111545EA10654FEA002658
:1023D0000EF000419D4208BF964244F1FD0404F511
:1023E000407402D25B084FEA3202B61A65EB03056D
:1023F0005B084FEA32024FF480104FF4002CB6EB2A
:10240000020E75EB030E22BFB61A754640EA0C00A9
:102410005B084FEA3202B6EB020E75EB030E22BFE9
:10242000B61A754640EA5C005B084FEA3202B6EB2A
:10243000020E75EB030E22BFB61A754640EA9C00E9
:102440005B084FEA3202B6EB020E75EB030E22BFB9
:10245000B61A754640EADC0055EA060E18D04FEA77
:10246000051545EA16754FEA06164FEAC30343EA17
:1024700052734FEAC2025FEA1C1CC0D111F4801FE4
:102480000BD141EA00014FF000004FF0004CB6E7DD
:1024900011F4801F04BF01430020B4F1FD0C88BF7C
:1024A000BCF5E06F3FF6AFAEB5EB030C04BFB6EB87
:1024B000020C5FEA500C50F1000041EB045170BD7A
:1024C0000EF0004E4EEA113114EB5C04C2BFD4EBA7
:1024D0000C0541EA045170BD41F480114FF0000E2B
:1024E000013C90E645EA060E8DE60CEA135594EAA7
:1024F0000C0F08BF95EA0C0F3FF43BAF94EA0C0FAA
:102500000AD150EA01347FF434AF95EA0C0F7FF41E
:1025100025AF104619462CE795EA0C0F06D152EA72
:1025200003353FF4FDAE1046194622E750EA410656
:1025300018BF52EA43067FF4C5AE50EA41047FF467
:102540000DAF52EA43057FF4EBAE12E74FF0FF3CCC
:1025500006E000BF4FF0010C02E000BF4FF0010C9D
:102560004DF804CD4FEA410C7FEA6C5C4FEA430C16
:1025700018BF7FEA6C5C1BD001B050EA410C0CBF65
:1025800052EA430C91EA030F02BF90EA020F0020C7
:10259000704710F1000F91EA030F58BF994208BF2E
:1025A00090422CBFD8176FEAE37040F001007047EB
:1025B0004FEA410C7FEA6C5C02D150EA013C07D142
:1025C0004FEA430C7FEA6C5CD6D152EA033CD3D08D
:1025D0005DF8040B704700BF8446104662468C4687
:1025E0001946634600E000BF01B5FFF7B7FF0028BA
:1025F00048BF10F1000F01BD4DF808EDFFF7F4FFE3
:102600000CBF012000205DF808FB00BF4DF808ED6D
:10261000FFF7EAFF34BF012000205DF808FB00BF90
:102620004DF808EDFFF7E0FF94BF012000205DF8B2
:1026300008FB00BF4DF808EDFFF7CEFF94BF012067
:1026400000205DF808FB00BF4DF808EDFFF7C4FF60
:1026500034BF012000205DF808FB00BF4FEA4102B3
:10266000B2F1E04324BFB3F5001CDCF1FE5C0DD9F0
:1026700001F0004C4FEAC0024CEA5070B2F1004F3A
:1026800040EB830008BF20F00100704711F0804F3D
:1026900021D113F13872BCBF01F00040704741F402
:1026A00080114FEA5252C2F11802C2F1200C10FA06
:1026B0000CF320FA02F018BF40F001004FEAC123EA
:1026C0004FEAD32303FA0CFC40EA0C0023FA02F38E
:1026D0004FEA4303CCE77FEA625307D150EA013364
:1026E0001EBF4FF0FE4040F44000704701F0004034
:1026F00040F0FE4040F40000704700BF80F0004012
:1027000002E000BF81F0004142001FBF5FEA4103C9
:1027100092EA030F7FEA226C7FEA236C6AD04FEAC9
:102720001262D2EB1363C1BFD2184140484041400E
:10273000B8BF5B42192B88BF704710F0004F40F4C0
:10274000000020F07F4018BF404211F0004F41F4DC
:10275000000121F07F4118BF494292EA030F3FD0A8
:10276000A2F1010241FA03FC10EB0C00C3F12003BB
:1027700001FA03F100F0004302D5494260EB40004A
:10278000B0F5000F13D3B0F1807F06D340084FEAB5
:10279000310102F10102FE2A51D2B1F1004F40EBAA
:1027A000C25008BF20F0010040EA03007047490012
:1027B00040EB000010F4000FA2F10102EDD1B0FADD
:1027C00080FCACF1080CB2EB0C0200FA0CF0AABFD2
:1027D00000EBC25052421843BCBFD0401843704770
:1027E00092F0000F81F4000106BF80F40000013276
:1027F000013BB5E74FEA41037FEA226C18BF7FEA4D
:10280000236C21D092EA030F04D092F0000F08BF8E
:102810000846704790EA010F1CBF0020704712F075
:102820007F4F04D1400028BF40F00040704712F1B4
:1028300000723CBF00F50000704700F0004343F019
:10284000FE4040F4000070477FEA226216BF08464F
:102850007FEA23630146420206BF5FEA412390EA12
:10286000010F40F4800070474FF0000304E000BF08
:1028700010F0004348BF40425FEA000C08BF7047B9
:1028800043F0964301464FF000001CE050EA01027D
:1028900008BF70474FF000030AE000BF50EA010292
:1028A00008BF704711F0004302D5404261EB41017F
:1028B0005FEA010C02BF84460146002043F0B643A4
:1028C00008BFA3F18053A3F50003BCFA8CF2083AC9
:1028D000A3EBC25310DB01FA02FC634400FA02FCD2
:1028E000C2F12002BCF1004F20FA02F243EB0200D9
:1028F00008BF20F00100704702F1200201FA02FC3B
:10290000C2F1200250EA4C0021FA02F243EB02002D
:1029100008BF20EADC7070474FF0FF0C1CEAD05271
:102920001EBF1CEAD15392EA0C0F93EA0C0F6FD032
:102930001A4480EA010C400218BF5FEA41211ED010
:102940004FF0006343EA501043EA5111A0FB0131FC
:102950000CF00040B1F5000F3EBF490041EAD371D1
:102960005B0040EA010062F17F02FD2A1DD8B3F14D
:10297000004F40EBC25008BF20F00100704790F0BC
:10298000000F0CF0004C08BF49024CEA502040EA0E
:1029900051207F3AC2BFD2F1FF0340EAC2507047D4
:1029A00040F400004FF00003013A5DDC12F1190F12
:1029B000DCBF00F000407047C2F10002410021FA84
:1029C00002F1C2F1200200FA02FC5FEA310040F19C
:1029D000000053EA4C0308BF20EADC70704792F015
:1029E000000F00F0004C02BF400010F4000F013A4D
:1029F000F9D040EA0C0093F0000F01F0004C02BF48
:102A0000490011F4000F013BF9D041EA0C018FE7B6
:102A10000CEAD15392EA0C0F18BF93EA0C0F0AD0BC
:102A200030F0004C18BF31F0004CD8D180EA0100E2
:102A300000F00040704790F0000F17BF90F0004F7B
:102A4000084691F0000F91F0004F14D092EA0C0F5D
:102A500001D142020FD193EA0C0F03D14B0218BFF0
:102A6000084608D180EA010000F0004040F0FE4036
:102A700040F40000704740F0FE4040F440007047D2
:102A80004FF0FF0C1CEAD0521EBF1CEAD15392EA51
:102A90000C0F93EA0C0F69D0A2EB030280EA010C41
:102AA00049024FEA402037D04FF0805343EA1111DA
:102AB00043EA10130CF000408B4238BF5B0042F138
:102AC0007D024FF4000C8B4224BF5B1A40EA0C00DD
:102AD000B3EB510F24BFA3EB510340EA5C00B3EB0F
:102AE000910F24BFA3EB910340EA9C00B3EBD10FFD
:102AF00024BFA3EBD10340EADC001B0118BF5FEA4F
:102B00001C1CE0D1FD2A3FF650AF8B4240EBC25077
:102B100008BF20F0010070470CF0004C4CEA502038
:102B20007F32C2BFD2F1FF0340EAC250704740F487
:102B300000004FF00003013A37E792F0000F00F079
:102B4000004C02BF400010F4000F013AF9D040EAF7
:102B50000C0093F0000F01F0004C02BF490011F48B
:102B6000000F013BF9D041EA0C0195E70CEAD15383
:102B700092EA0C0F08D142027FF47DAF93EA0C0F6A
:102B80007FF470AF084676E793EA0C0F04D14B024E
:102B90003FF44CAF08466EE730F0004C18BF31F000
:102BA000004CCAD130F000427FF45CAF31F00043FA
:102BB0007FF43CAF5FE700BF014B1868704700BF70
:102BC0004004002070B4840746D0541E002A41D02F
:102BD000CDB2034602E0621EE4B3144603F8015B83
:102BE0009A07F8D1032C2ED9CDB245EA05250F2C32
:102BF00045EA054519D903F110022646103E0F2E6D
:102C000042F8105C42F80C5C42F8085C42F8045C44
:102C100002F11002F2D8A4F1100222F00F0204F027
:102C20000F041032032C13440DD91E462246043AD9
:102C3000032A46F8045BFAD8221F22F0030204326A
:102C4000134404F003042CB1C9B21C4403F8011B63
:102C5000A342FBD170BC704714460346C2E700BFD5
:102C6000000080BF00000000F304353F5E836C3F2E
:102C7000BE147B3F6DC47E3F0FB17F3F43EC7F3F6F
:102C800011FB7F3FC4FE7F3FB1FF7F3FECFF7F3FE3
:102C9000FBFF7F3FFFFF7F3F00000000000080BF81
:102CA000F30435BF15EFC3BEC2C547BE36BDC8BDB0
:102CB00030FB48BDB00AC9BC900E49BC880FC9BBE7
:102CC000C60F49BBD50FC9BAD90F49BADA0FC9B96E
:102CD0006C6F67313000000000000000430000000E
:102CE000007A030A00000000000000000102030453
:102CF000060708090100000000000000040300208E
:102D00006C030020D403002000000000000000003D
:102D100000000000000000000000000000000000B3
:102D2000000000000000000000000000DC2C000893
:102D30000000000000000000000000000000000093
:102D40000000000000000000000000000000000083
:102D50000000000000000000000000000000000073
:102D60000000000000000000000000000000000063
:102D70000000000000000000000000000000000053
:102D80000000000000000000000000000000000043
:102D90000000000000000000000000000000000033
:102DA00001000000000000000E33CDAB34126DE6D0
:102DB000ECDE05000B000000000000000000000039
:102DC0000000000000000000000000000000000003
:102DD00000000000000000000000000000000000F3
:102DE00000000000000000000000000000000000E3
:102DF00000000000000000000000000000000000D3
:043120001800002073
:0400000508000000EF
:00000001FF
